:100000000C9423010C944B010C944B010C94370578
:100010000C9437050C9437050C944B010C944B0150
:100020000C944B010C944B010C944B010C949310C9
:100030000C944B010C944B010C944B010C944B0110
:100040000C94CA100C944B010C94AC130C94DE135A
:100050000C944B010C944B010C944B010C944B01F0
:100060000C947D080C944B0107634236B79BD8A7CC
:100070001A39685618AEBAAB558C1D3CB7CC5763CD
:10008000BD6DEDFD753EF6177231BF000000803F7B
:1000900008000000BE922449123EABAAAA2ABECD97
:1000A000CCCC4C3E00000080BEABAAAAAA3E000009
:1000B0000000BF000000803F000000000008417801
:1000C000D3BB4387D1133D190E3CC3BD4282AD2B38
:1000D0003E68EC8276BED98FE1A93E4C80EFFFBE30
:1000E00001C4FF7F3F000000000000000008000284
:1000F00001000003040700000000000000000102EE
:1001000004081020408001020408102001020408A5
:100110001020040404040404040402020202020283
:10012000030303030303000000002300260029004B
:1001300000000000250028002B0000000000240023
:1001400027002A0000407A10F35A00A0724E1809C6
:100150000010A5D4E80000E87648170000E40B542E
:10016000020000CA9A3B000000E1F50500008096FD
:100170009800000040420F000000A086010000002F
:10018000102700000000E8030000000064000000E9
:1001900000000A00000000000100000000002C76B2
:1001A000D888DC674F0823DFC1DFAE59E1B1B796CD
:1001B000E5E3E453C63AE651997696E8E6C284262A
:1001C000EB898C9B62ED407C6FFCEFBC9C9F40F206
:1001D000BAA56FA5F490055A2AF75C936B6CF96782
:1001E0006DC11BFCE0E40D47FEF520E6B500D0ED47
:1001F000902E0300943577050080841E08000020AF
:100200004E0A000000C80C333333330F986E12834C
:100210001141EF8D2114893BE65516CFFEE6DB1820
:10022000D1844B381BF77C1D901DA4BBE4242032E5
:1002300084725E228100C9F124ECA1E53D279B0771
:100240007D0F0E14B10F11241FBECFEFD8E0DEBF1B
:10025000CDBF11E0A0E0B1E0E0E3FFE302C0059014
:100260000D92A23BB107D9F725E0A2EBB1E001C0A6
:100270001D92A53EB207E1F712E0C4E4D2E004C04B
:100280002297FE010E94891ACE33D107C9F70E9436
:1002900052140C948B1F0C9400000895CF92DF929F
:1002A000EF92FF92FC0185899689481B590B6109E1
:1002B0007109A389B4899A01AB010E94601A6B018C
:1002C0007C018FE0F594E794D794C7948A95D1F791
:1002D00065857685882777FD8095982F2BE0660FBA
:1002E000771F881F991F2A95D1F7278530894427C2
:1002F00037FD4095542F2C0D3D1D4E1D5F1D0E9456
:10030000411A2C0D3D1D4E1D5F1DCA01B901FF9004
:10031000EF90DF90CF9008951F93CF93DF931F92BC
:10032000CDB7DEB7162F67E770E086EF91E049831F
:100330000E948307612F86EF91E00E942007498188
:10034000642F86EF91E00E94200786EF91E00F90E6
:10035000DF91CF911F910C949807CF93C62F67E739
:1003600070E086EF91E00E9483076C2F86EF91E0AA
:100370000E94200786EF91E00E94980767E770E0EF
:1003800086EF91E00E94830741E050E067E770E06C
:1003900086EF91E00E94760786EF91E00E94D006FA
:1003A000C82F86EF91E00E9498078C2FCF91089577
:1003B000CF93DF93C62F67E770E086EF91E00E944E
:1003C00083076C2F86EF91E00E94200786EF91E073
:1003D0000E94980767E770E086EF91E00E9483072C
:1003E00042E050E067E770E086EF91E00E94760718
:1003F00086EF91E00E94D006D82F80E0C82F86EFCC
:1004000091E00E94D006C82BD92B86EF91E00E9484
:100410009807CE01DF91CF910895CF93DF93EC0140
:10042000643008F063E0688386EF91E00E945F0724
:1004300060EDCE010E94AD01853509F044C06AEA45
:10044000CE010E94D8019A8389836CEACE010E9472
:10045000D8019C838B836EEACE010E94D8019E83D3
:100460008D8360EBCE010E94D8019A8B898B62EB61
:10047000CE010E94D8019C8B8B8B64EBCE010E9435
:10048000D8019E8B8D8B66EBCE010E94D801988798
:100490008F8368EBCE010E94D8019A8789876AEB27
:1004A000CE010E94D8019C878B876CEBCE010E9405
:1004B000D8019E878D876EEBCE010E94D801988B64
:1004C0008F8781E001C080E0DF91CF910895CF93C5
:1004D000DF93EC014EE264EF0E948C0165E070E076
:1004E00080E090E00E94431166EFCE01DF91CF9152
:1004F0000C94D801CF93DF93EC010E946702AC010A
:1005000060E070E0CE010E944E01685F7F4F8F4F28
:100510009F4F34E095958795779567953A95D1F7F4
:100520000E947F1720E030E040E251E40E94E41690
:10053000DF91CF910895CF92DF92EF92FF92CF9308
:10054000DF93EC0148814295440F440F407C4C5CA2
:1005500064EF0E948C018881811105C065E070E024
:1005600080E090E012C0813029F468E070E080E023
:1005700090E00BC0823029F46EE070E080E090E003
:1005800004C06AE170E080E090E00E94431166EFF1
:10059000CE010E94D8016C01E12CF12CFE2CED2C37
:1005A000DC2CCC2468EFCE010E94AD01A70196019E
:1005B000282BCA01B901488128E030E0241B310909
:1005C00004C096958795779567952A95D2F7DF9120
:1005D000CF91FF90EF90DF90CF9008952F923F92B0
:1005E0004F925F926F927F928F929F92AF92BF9243
:1005F000CF92DF92EF92FF920F931F93CF93DF93EF
:10060000CDB7DEB72A970FB6F894DEBF0FBECDBFC9
:100610009A8789870E9467028C0189859A850E9442
:100620009B026D837E838F839887A80160E070E0D2
:1006300089859A850E944E014B015C0180EA881AE7
:100640008FE0980AA108B108A5019401C501B40181
:100650000E94FB192B013C010CE0759467945794A0
:1006600047940A95D1F7A985BA8511962D903C90AB
:1006700012971C9115960D90BC91A02D0E946B1A9B
:100680006B017C018DE0F594E794D794C7948A952B
:10069000D1F7E985FA85A781B085A30192010E946F
:1006A0006B1ABB2797FDB095AB2FC80ED91EEA1E5B
:1006B000FB1EF2E0CF0ED11CE11CF11C32E0F594E0
:1006C000E794D794C7943A95D1F780E8D80EE11C07
:1006D000F11CE985FA85A189B289A70196010E94DA
:1006E000601ADC01CB014FE0B695A79597958795E9
:1006F0004A95D1F789839A83AB83BC836101EE2449
:10070000D7FCE094FE2C52E0CC0CDD1CEE1CFF1C50
:100710005A95D1F7A185B285A30192010E946B1A67
:100720002B013C016BE075946794579447946A954C
:10073000D1F7A381B481A50194010E946B1AEBE06B
:100740009595879577956795EA95D1F7460E571E4B
:10075000681E791EC40CD51CE61CF71C012E04C0B3
:10076000CC0CDD1CEE1CFF1C0A94D2F792E0C90EE3
:10077000D11CE11CF11CC701B60124E030E040E0CF
:1007800050E00E94411A8D819E81AF81B885821B05
:10079000930BA40BB50B9C01AD0160E573EC80E0FD
:1007A00090E004C096958795779567951A95D2F74E
:1007B0000E94FB1997FD0DC0660F771F881F991FB8
:1007C00029813A814B815C810E941F1A49015A019B
:1007D0000CC029813A814B815C810E941F1A49011A
:1007E0005A01880C991CAA1CBB1C9927B7FC9A9526
:1007F0008B2D7A2D692D9B01AC010E94FB199B0169
:10080000AC01AEEDBBE00E94601A6C01FF24D7FC86
:10081000F094EF2CA3E4B3EEA50194010E946E1AAC
:10082000BB2797FDB095AB2FC80ED91EEA1EFB1E45
:100830009FECC90E9EE0D91EE11CF11CA4E0F594CA
:10084000E794D794C794AA95D1F7C80CD91CEA1C91
:10085000FB1CC701B6012A960FB6F894DEBF0FBE87
:10086000CDBFDF91CF911F910F91FF90EF90DF905F
:10087000CF90BF90AF909F908F907F906F905F9040
:100880004F903F902F9008952091F4013091F50101
:1008900028173907B9F49091B2018091B3019817E4
:1008A00089F0E091B201F0E0EC54FE4F808120919C
:1008B000B20130E02F5F3F4F2F7333272093B201F7
:1008C00090E008958FEF9FEF08951F93CF93DF93EC
:1008D000DC015C968D919C915D97009749F481E0D5
:1008E00090E013969C938E93129780E090E03BC02B
:1008F0005196ED91FC91529750962C915097322F32
:1009000030951FB75E964C915E9741FB772770F943
:1009100041FD6095F8944081772311F0422B01C08E
:1009200043234083EC012197F1F748E0508160FFB9
:1009300002C0522B01C053235083EC012197F1F7E1
:100940006695415099F78081772311F0832301C088
:10095000822B80831FBF5C968D919C915D97019740
:10096000F1F781E090E0DF91CF911F910895209100
:10097000F4013091F5012817390781F49091B20103
:100980008091B301981751F0E091B201F0E0EC547E
:10099000FE4F8081992787FD909508958FEF9FEFF7
:1009A00008952091F4013091F5012817390771F469
:1009B0008091B3012091B20190E0805C9F4F821B37
:1009C000910960E470E00E940B1A089580E090E0C5
:1009D00008952091F4013091F5012817390739F471
:1009E0008FB7F8941092B3011092B2018FBF08959F
:1009F000E091F401F091F501E817F90769F4A38992
:100A0000B4899C918589809589238C931092F501F6
:100A10001092F40181E0089580E00895CF93DF9370
:100A2000EC018A8D9B8D892BF1F08091F4019091DE
:100A3000F5018C179D07B9F0009711F00E94F8049A
:100A40008E8D8E7F8E8F1092B3011092B201D09353
:100A5000F501C093F401EB89FC8980819D89892B84
:100A6000808381E001C080E0DF91CF9108951F92E3
:100A70000F920FB60F9211242F933F934F935F93D2
:100A80006F937F938F939F93AF93BF93EF93FF9356
:100A9000E091F401F091F501309709F451C0868D91
:100AA000A685B785958581FF04C08C91892329F49B
:100AB00047C08C91892309F043C0A389B4899C91D4
:100AC0008589809589238C93868997890197F1F789
:100AD000208D318DA685B785758558E040E0C90128
:100AE0000197F1F7842F90E095958795482F6C91A9
:100AF000672309F04068515091F7868D81FD40953C
:100B00008091B30190E001968F7399272091B201F3
:100B1000281749F0A091B301B0E0AC54BE4F4C93FC
:100B20008093B30103C0868D8160868F828D938D03
:100B30000197F1F7A389B4898C919589892B8C93BE
:100B4000FF91EF91BF91AF919F918F917F916F91A5
:100B50005F914F913F912F910F900FBE0F901F907B
:100B600018952EE231E0FC01318320830C94F804C7
:100B70001F93CF93DF93EC01162F6E8D66956170F6
:100B800081E06827812F0E94081261E0812F0E9476
:100B9000CF11812F90E0FC01E250FF4FE491E88BF0
:100BA000FC01EE5EFE4FE491F0E0EE0FFF1FE05D12
:100BB000FE4F859194919A8B898BDF91CF911F91F4
:100BC00008951F93CF93DF93EC01162F60E0812FE0
:100BD0000E94CF118E8D81FD04C061E0812F0E94A3
:100BE00008121C87812F90E0FC01E250FF4FE49136
:100BF000ED87FC01EE5EFE4FE491F0E0EE0FFF1F8B
:100C0000EA5DFE4F859194919F878E87DF91CF910A
:100C10001F910895FF920F931F93CF93DF93EC01E1
:100C2000F62E522F1B821A8208EE13E020E030E0ED
:100C30000C831D832E833F838EE291E0998388830A
:100C40001F8A1E8A198E188E1B8E1A8E1D8E1C8E60
:100C50008E8D8E7F50FB81F98E8F642FCE010E9486
:100C6000B8056F2DCE01DF91CF911F910F91FF90AD
:100C70000C94E105CF93DF93EC019A01AB011B8E3D
:100C80001A8E198E188E1F8A1E8A60E079E08DE315
:100C900090E00E94411AC9012430310520F0B901C9
:100CA0006350710902C061E070E07D8F6C8FEC854C
:100CB000E63108F068C0B901769567956431710531
:100CC00018F06351710902C061E070E07F8B6E8B98
:100CD000069718F0C901059702C081E090E0998F4E
:100CE000888FC901880F991F820F931F969587954A
:100CF000969587958D30910510F00C9702C081E094
:100D000090E09B8F8A8F20916800E83050F091E04E
:100D1000EE3008F490E081E001C0880F9A95EAF780
:100D200001C084E0822B809368002C85283038F045
:100D30002E3040F0263148F48CE690E008C08DE675
:100D400090E005C08BE690E002C080E090E09C8BD4
:100D50008B8B283030F481E001C0880F2A95EAF7A8
:100D60000DC0822F90E02E3010F4089701C00E972E
:100D700091E001C0990F8A95EAF7892F8D8B8C8DB0
:100D80009D8D0197F1F7CE01DF91CF910C940E0567
:100D90008091260290E020912702821B91090895FC
:100DA0002091270280912602281750F4E22FF0E0CC
:100DB000E85DFD4F808190E02F5F2093270208952A
:100DC0008FEF9FEF0895E091270280912602E817A8
:100DD00030F4F0E0E85DFD4F808190E008958FEF02
:100DE0009FEF08950895CF92DF92EF92FF920F93B5
:100DF0001F93CF93DF937C01CB018A0120910202E4
:100E0000222389F0EB016B01C40ED51ECC15DD0544
:100E100069F06991D701ED91FC910190F081E02D8D
:100E2000C7010995F3CF642F0E945408C801DF91D0
:100E3000CF911F910F91FF90EF90DF90CF90089589
:100E4000CF93DF931F92CDB7DEB769832091020263
:100E50002223D1F020910302203240F021E030E043
:100E6000FC013383228380E090E015C0809104026E
:100E7000E82FF0E0EB5FFD4F998190838F5F8093C7
:100E800004028093030205C061E0CE0101960E9436
:100E9000540881E090E00F90DF91CF910895FC011C
:100EA0001382128248EE53E060E070E04483558381
:100EB000668377838EE391E0918380830895109217
:100EC00027021092260210920402109203020C9440
:100ED0009F07862F413208F040E268E272E00E94EC
:100EE000BD071092270280932602089521E00C94FA
:100EF000690781E080930202609325021092040248
:100F00001092030208950C9479070F93062F21E0A5
:100F10004091030265E072E0809125020E94010881
:100F20001092040210920302109202020F9108958F
:100F300061E00C94850786EF91E00C944F071092C6
:100F4000B50281E08093B3021092B20261E082E1C7
:100F50000E94081261E083E10E940812E9EBF0E0D0
:100F600080818E7F808380818D7F808388E48093E1
:100F7000B80085E48093BC000895413208F03FC07A
:100F80009091B5029111FCCF91E09093B50220931E
:100F9000B3022FEF2093480210928D02240F20936A
:100FA0008C029093B4029091B402880F892B8093A5
:100FB000B4028091B202813041F41092B202809169
:100FC000B4028093BB0085EC01C085EE8093BC0029
:100FD0008091B5028130E1F380918D02841710F485
:100FE00040918D022EE832E0FB01D9018A2F821B4D
:100FF000841718F48D918193F9CF842F089580E0A0
:1010000008950F93413208F046C09091B5029111B6
:10101000FCCF92E09093B5020093B3029FEF9093C0
:10102000480210928D0240938C02FB016EE872E040
:10103000DB019A2F961B941718F491919D93F9CF89
:101040001092B4029091B402880F892B8093B4025D
:101050008091B202813041F41092B2028091B402C8
:101060008093BB0085EC01C085EE8093BC002223F9
:1010700021F08091B5028230E1F3809148028F3FE8
:1010800061F080914802803251F0809148028033B3
:1010900041F483E007C081E005C080E003C082E046
:1010A00001C084E00F910895613298F42091B50257
:1010B000243089F460936A02FC018CE692E0DC0142
:1010C0002A2F281B261718F421912D93F9CF80E0A1
:1010D000089581E0089582E0089585ED8093BC0035
:1010E0008091BC0084FDFCCF1092B502089585EC80
:1010F0008093BC001092B50208951F920F920FB614
:101100000F9211242F933F934F935F936F937F938D
:101110008F939F93AF93BF93EF93FF938091B90009
:10112000887F803609F49CC068F5883209F45BC07A
:1011300090F4803109F454C038F4882309F4F5C0E0
:10114000883009F44DC0F5C0883109F44CC08032B4
:1011500009F45DC0EEC0803409F468C048F48033FF
:1011600009F455C0883309F0E4C080934802A8C050
:10117000803509F44FC0883509F45DC0883409F022
:10118000D8C0D5C0883909F4C6C0A8F4883709F496
:1011900067C038F4883609F463C0803709F460C04A
:1011A000C8C0883809F4B7C0803909F45FC08038F6
:1011B00009F0BFC05BC0803B09F485C038F4803AB9
:1011C00009F466C0883A09F47EC0B3C0803C09F4D3
:1011D000A6C0883C09F4A3C0883B09F489C0A9C013
:1011E0008091B40210C090918D0280918C0298176A
:1011F00070F5E0918D0281E08E0F80938D02F0E01A
:10120000E257FD4F80818093BB0085EC85C08093C1
:1012100048028DC0E0918D0281E08E0F80938D0297
:101220008091BB00F0E0E257FD4F808390918D02EA
:1012300080918C026DC0E0918D0281E08E0F8093D1
:101240008D028091BB00F0E0E257FD4F80838091DA
:10125000B30281116CC081E08093B20284EA60C065
:1012600083E08093B50210924902CFCF809149026A
:10127000803208F050C0E091490281E08E0F8093E7
:1012800049028091BB00F0E0E65BFD4F8083BDCF5B
:1012900080914902803230F4E0914902F0E0E65B4F
:1012A000FD4F10820E946D086091490270E0E0914C
:1012B000AE02F091AF028AE492E0099510924902E1
:1012C0000E94770836C084E08093B50210926B02CA
:1012D00010926A02E091B002F091B10209958091FA
:1012E0006A02811105C081E080936A0210926C024B
:1012F000E0916B0281E08E0F80936B02F0E0E45985
:10130000FD4F80818093BB0090916B0280916A02B7
:10131000981708F47ACF85E88093BC000AC085EC62
:101320008093BC001092B50204C0109248020E9443
:101330006D08FF91EF91BF91AF919F918F917F9138
:101340006F915F914F913F912F910F900FBE0F9032
:101350001F9018958EE480937C0062E070E080E03E
:1013600090E00E94431180917A00806480937A001B
:1013700080917A0086FDFCCF8091780020917900E1
:1013800030E0322F2227442737FD4095542F282B59
:1013900060E070E381E190E00E94411ACA01B90166
:1013A000089526E040E855E260E070E083E495E0CF
:1013B0000E944A1340E855E260E070E087E195E062
:1013C0000E943A0686EF91E00E945F0761E08091FB
:1013D0001E010E94CF1161E080911C010E94CF117B
:1013E00061E086E00E94CF1161E080911C010E94C3
:1013F000081261E080911E010E94081263E080E003
:1014000095E00E940D02811107C06AE471E083E457
:1014100095E00E94B314FFCF08952F923F924F9210
:101420005F926F927F928F929F92AF92BF92CF9274
:10143000DF92EF92FF920F931F93CF93DF93CDB77D
:10144000DEB7C656D1090FB6F894DEBF0FBECDBFCA
:101450000E9414110E947D1765966CAF7DAF8EAF10
:101460009FAF659780E095E00E94EE0260931001C7
:10147000709311018093120190931301E6ECF2E056
:101480000481158126813781019311932193319332
:1014900023E0EA32F207A1F7609326037093270353
:1014A0008093280390932903E6ECF2E0C12CD12C21
:1014B00076010191119121913191C00ED11EE21E50
:1014C000F31E33E0EA32F307A1F70E947F1720E80A
:1014D00036EE45EC57E40E94E41621EB3CED42E485
:1014E0005EE30E9496189B01AC0160E070E080E82A
:1014F0009FE30E947B1620E03AE24DE257E40E940F
:1015000033186093F8047093F9048093FA0490936D
:10151000FB04C701B60129E130E040E050E00E9441
:10152000411ACA01B9010E947F1769966CAF7DAF5D
:101530008EAF9FAF699720E836EE45EC57E40E94E6
:10154000E41621EB3CED42E45EE30E9496189B0119
:10155000AC0160E070E080E89FE30E947B1620E031
:101560003AE24DE257E40E9433186093BA02709356
:10157000BB028093BC029093BD020E9414110E9492
:101580007D176B017C0120E030E04AE754E4609174
:10159000BE027091BF028091C0029091C1020E9470
:1015A0007C169B01AC01C701B6010E942F1887FD74
:1015B00036C0C090BA02D090BB02E090BC02F0905E
:1015C000BD022091B6023091B7024091B80250910D
:1015D000B902C701B6010E947B1620E030E048EC5A
:1015E00052E40E9433186093C2027093C302809346
:1015F000C4029093C502C092B602D092B702E092A4
:10160000B802F092B9020E9414110E947D176093F3
:10161000BE027093BF028093C0029093C1020E94E9
:10162000141120910601309107016901EE24D7FCC5
:10163000E094FE2C0091E0041091E1042091E2047A
:101640003091E304C00ED11EE21EF31E6C157D0521
:101650008E059F0508F47EC00E94AA090E947F178C
:101660006093F4047093F5048093F6049093F70468
:1016700020E030E04AE754E40E94E4166093F0046E
:101680007093F1048093F2049093F3040E94141178
:101690006093E0047093E1048093E2049093E30488
:1016A00026E636E646E650E46091F0047091F104D7
:1016B0008091F2049091F3040E942F18181654F4AC
:1016C00061E080911C010E94081260E080911E017F
:1016D0000E940812C090F004D090F104E090F2044F
:1016E000F090F3042AE939E949E550E4C701B6016D
:1016F0000E942F181816A4F426E636E646E650E4B3
:10170000C701B6010E94E01687FF0AC061E0809120
:101710001C010E94081261E080911E010E940812C3
:101720002AE939E949E550E46091F0047091F10447
:101730008091F2049091F3040E94E016181654F080
:1017400060E080911C010E94081261E080911E01FE
:101750000E9408120E941411209108013091090181
:101760006901EE24D7FCE094FE2C0091E80410916E
:10177000E9042091EA043091EB04C00ED11EE21E70
:10178000F31E6C157D058E059F05E0F080E095E069
:101790000E947A020E944C176093FC047093FD042F
:1017A0008093FE049093FF0470930F0160930E01E9
:1017B0000E9414116093E8047093E9048093EA0492
:1017C0009093EB0400910A0110910B0122E034E0A8
:1017D0004EEFE42E43E0F42EE2E3F3E081E090E00C
:1017E00008171907B4F0D9014D915D916D917D9164
:1017F0009D01D7014D935D936D937D937D01448150
:1018000055816681778141935193619371930196DC
:10181000E7CFC801880F991F880F991FFC01E2507C
:10182000FC4F4091F8045091F9046091FA047091D2
:10183000FB044083518362837383FC01EE5CFC4FA5
:1018400065962CAD3DAD4EAD5FAD65972083318380
:101850004283538340910C0150910D016B965FAF11
:101860004EAF6B97C801841B950B29969FAF8EAF27
:101870002997880F991F880F991FDC01AE5CBC4F18
:10188000A196BFAFAEAFA1972D913D914D915C91C7
:10189000A5962CAF3DAF4EAF5FAFA597FC01E250D0
:1018A000FC4FA796FFAFEEAFA797212C312C2796C0
:1018B0001CAE1DAE1EAE1FAE279761961CAE1DAEB0
:1018C0001EAE1FAE61972D961CAE1DAE1EAE1FAE96
:1018D0002D97812C912C54012401350129968EAD30
:1018E0009FAD2997801791070CF07EC0A196EEADB1
:1018F000FFADA197E20DF31DA5962CAD3DAD4EAD0C
:101900005FADA59760817181828193810E947B1672
:101910006B017C01A796EEADFFADA797E20DF31D1D
:1019200020813181428153816F962CAF3DAF4EAF04
:101930005FAF6F970E9433189B01AC01C301B201E6
:101940000E947C162B013C01A7019601C501B40140
:101950000E947C164B015C016F962CAD3DAD4EADE7
:101960005FAD6F972D966CAD7DAD8EAD9FAD2D9714
:101970000E947C162D966CAF7DAF8EAF9FAF2D97DA
:10198000A7019601C701B6010E9433189B01AC0163
:1019900061966CAD7DAD8EAD9FAD61970E947C165A
:1019A00061966CAF7DAF8EAF9FAF6197A701960137
:1019B00027966CAD7DAD8EAD9FAD27970E947C16AE
:1019C00027966CAF7DAF8EAF9FAF279729964EAD10
:1019D0005FAD29974F5F5F4F29965FAF4EAF299755
:1019E00054E0250E311C7ACF20912E0330912F0325
:1019F000409130035091310365966CAD7DAD8EAD55
:101A00009FAD65970E947B1620912A0330912B038E
:101A100040912C0350912D030E942F1818160CF0A2
:101A20000CC16B96AEADBFAD6B97BD01882777FD3E
:101A30008095982F0E947F176B017C01A301920172
:101A40000E9433182B013C012D962CAD3DAD4EADBF
:101A50005FAD2D97C501B4010E9433189B01AC0105
:101A6000C301B2010E947B1620E030E04AE754E453
:101A70000E9433184B015C0161962CAD3DAD4EAD1B
:101A80005FAD6197C701B6010E9433186B017C01FD
:101A900027962CAD3DAD4EAD5FAD2797CA01B9017C
:101AA0000E9433189B01AC01C701B6010E947B164E
:101AB0009B01AC01C501B4010E94E4166B017C01DD
:101AC00065962CAD3DAD4EAD5FAD659720932E0371
:101AD00030932F034093300350933103209118012A
:101AE0003091190140911A0150911B010E942F1849
:101AF00018160CF059C020E030E040E251E4C70174
:101B0000B6010E94E01618160CF44EC020E030E03A
:101B100040EF51E4C701B6010E947C169B01AC0165
:101B2000C701B6010E9433189B01AC0160E070E868
:101B300089E094E40E947B1660932A0370932B0340
:101B400080932C0390932D0320E030E040EA51E491
:101B5000C701B6010E947C169B01AC01C701B6010A
:101B60000E9433189B01AC0160E070E082ED93E4C9
:101B70000E947B160E9451174B015C0120E030E06F
:101B800048E453E4C701B6010E94331820E030EC6A
:101B90004FEA54E40E947C160E945117EE24E3940D
:101BA000950184014AE047C020E030E040E251E482
:101BB000C701B6010E942F181816C4F480E090E007
:101BC000A0E2B3E480932A0390932B03A0932C0309
:101BD000B0932D03EE24E39408E710E020E030E01A
:101BE0004AE06AE77DE080E090E025C020911401A2
:101BF000309115014091160150911701C701B601AE
:101C00000E94E01687FF19C080E090E0A8E4B3E4EA
:101C100080932A0390932B03A0932C03B0932D035E
:101C2000EE24E39404E511E020E030E04AE06CE2C9
:101C300071E080E090E00E94C30F0E9414110E94A6
:101C400014110091E4041091E5042091E604309110
:101C5000E704035B1E4F2F4F3F4F6017710782074A
:101C6000930708F430C162E871E0CE0101960E944A
:101C7000AF1560910E0170910F014AE0CE010796F9
:101C80000E94FD156FE871E0CE010D960E94AF1520
:101C900065E871E0CE0143960E94AF156091F004B3
:101CA0007091F1048091F2049091F30404ED14E03A
:101CB00022E042E00E949C1ABC01CE0149960E949B
:101CC000AF156FE871E0CE014F960E94AF1520E08E
:101CD00030E040E251E46091C2027091C302809111
:101CE000C4029091C5020E94E4160AED14E022E0BD
:101CF00042E00E949C1ABC01CE0185960E94AF155D
:101D00006FE871E0CE018B960E94AF1520E030E0C5
:101D100048EC52E469966CAD7DAD8EAD9FAD699790
:101D20000E94E4160AEC14E020E040E00E949C1AB5
:101D3000BC01CE01C7960E94AF156AE871E0CE01E2
:101D4000C1960E94AF15BE01695C7F4FCE01C1965E
:101D50000E945516BE01655D7F4F0E945516BE015B
:101D60006B5D7F4F0E945516BE01615E7F4F0E94E2
:101D70005516BE01675E7F4F0E945516BE016D5E0F
:101D80007F4F0E945516BE01635F7F4F0E9455161C
:101D9000BE01695F7F4F0E945516BE016F5F7F4F86
:101DA0000E945516BC01CE01CD960E94DC15CE01D5
:101DB000C1960E944115CE01C7960E944115CE01E1
:101DC0008B960E944115CE0185960E944115CE0149
:101DD0004F960E944115CE0149960E944115CE01B1
:101DE00043960E944115CE010D960E944115CE01E9
:101DF00007960E944115CE0101960E944115E12CE3
:101E0000F12C00E010E023968EAD9FAD2397E816ED
:101E1000F90660F4B701CE01CD960E946816DC0188
:101E20008C910827BFEFEB1AFB0AEDCF6EE771E04C
:101E300083E495E00E94AD14BE01635C7F4F83E4B0
:101E400095E00E949F1460E871E083E495E00E94B1
:101E5000AD1440E150E0B80183E495E00E942B15F9
:101E60006EE771E087E195E00E94AD14BE01635C0E
:101E70007F4F87E195E00E949F1460E871E087E161
:101E800095E00E94AD1440E150E0B80187E195E093
:101E90000E942B150E9414116093E4047093E504D2
:101EA0008093E6049093E70486E00E943E12019737
:101EB00011F460E001C061E086E00E940812CE01EA
:101EC000CD960E944115CA59DF4F0FB6F894DEBF78
:101ED0000FBECDBFDF91CF911F910F91FF90EF907B
:101EE000DF90CF90BF90AF909F908F907F906F903A
:101EF0005F904F903F902F90089520E043E062E084
:101F000087E195E00E940A0680E095E00E944D017D
:101F10000E9414116093EC047093ED048093EE041E
:101F20009093EF040E9414116093E8047093E90405
:101F30008093EA049093EB040E9414116093E404EC
:101F40007093E5048093E6049093E7040E941411D3
:101F50006093E0047093E1048093E2049093E304BF
:101F6000089587E195E00C94B105EFE6F0E08081FB
:101F70008D7F808382E08093810081E08093800068
:101F800029982A9808954F925F926F927F928F922C
:101F90009F92AF92BF92CF92DF92EF92FF920F93F8
:101FA0001F93CF93DF9300D000D0CDB7DEB72B01C6
:101FB0003C01480159010E2D6115710581059105FE
:101FC00009F486C0442309F483C0142F4B3008F071
:101FD0001AE084B1866084B960E072E18AE790E03B
:101FE000A30192010E941F1A69017A0181E0C81AB7
:101FF000D108E108F108C114D104E1E0EE06F104D2
:1020000060F0CD2CDE2CEF2CFF24F1E0CF1AD108AC
:10201000E108F10894E0792E02C077247394E12F4F
:10202000F0E0E15EFE4F208130E040E050E0C7018B
:10203000B6010E941F1A81149104A104B104D9F0C1
:102040000023C9F029833A834B835C830E941411D7
:10205000680D791D8A1D9B1D6093360570933705A9
:10206000809338059093390580916F00826080934A
:102070006F003A812981D0928700C09286008091BA
:10208000840090918500A0E0B0E0C816D906EA0669
:10209000FB0620F4D0928500C0928400872D8061D9
:1020A0008093810030938B0020938A0030938900C5
:1020B0002093880080EB8093800081149104A10418
:1020C000B104E1F001111AC0C501B4010E9443112D
:1020D0000F900F900F900F90DF91CF911F910F9164
:1020E000FF90EF90DF90CF90BF90AF909F908F9038
:1020F0007F906F905F904F900C94B50F0F900F9062
:102100000F900F90DF91CF911F910F91FF90EF9063
:10211000DF90CF90BF90AF909F908F907F906F9007
:102120005F904F9008951F920F920FB60F92112457
:102130000F931F932F933F934F935F936F937F93CF
:102140008F939F93AF93BF93EF93FF930E941411CC
:1021500000913605109137052091380530913905E9
:10216000601771078207930710F00E94B50FFF9167
:10217000EF91BF91AF919F918F917F916F915F91FF
:102180004F913F912F911F910F910F900FBE0F9084
:102190001F9018951F920F920FB60F9211242F9334
:1021A0003F938F939F93AF93BF9380913B05909103
:1021B0003C05A0913D05B0913E0530913A0523E0E4
:1021C000230F2D3720F40196A11DB11D05C026E86F
:1021D000230F0296A11DB11D20933A0580933B0564
:1021E00090933C05A0933D05B0933E0580913F053B
:1021F00090914005A0914105B09142050196A11D25
:10220000B11D80933F0590934005A0934105B09385
:102210004205BF91AF919F918F913F912F910F9068
:102220000FBE0F901F9018952FB7F89460913B0543
:1022300070913C0580913D0590913E052FBF08951A
:102240003FB7F89480913F0590914005A0914105DA
:10225000B091420526B5A89B05C02F3F19F0019605
:10226000A11DB11D3FBF6627782F892F9A2F620FBE
:10227000711D811D911D42E0660F771F881F991FF8
:102280004A95D1F70895CF92DF92EF92FF92CF93C4
:10229000DF936B017C010E942011EB01C114D1047A
:1022A000E104F10489F00E947A160E9420116C1B4F
:1022B0007D0B683E734090F381E0C81AD108E108B5
:1022C000F108C851DC4FEACFDF91CF91FF90EF903A
:1022D000DF90CF900895789484B5826084BD84B5F2
:1022E000816084BD85B5826085BD85B5816085BD11
:1022F000EEE6F0E0808181608083E1E8F0E010822A
:10230000808182608083808181608083E0E8F0E06A
:10231000808181608083E1EBF0E080818460808354
:10232000E0EBF0E0808181608083EAE7F0E080818B
:1023300084608083808182608083808181608083EB
:102340008081806880831092C1000895833081F07D
:1023500028F4813099F08230A1F008958730A9F0F7
:102360008830B9F08430D1F4809180008F7D03C033
:10237000809180008F7780938000089584B58F7757
:1023800002C084B58F7D84BD08958091B0008F77A1
:1023900003C08091B0008F7D8093B0000895CF93EB
:1023A000DF9390E0FC01E250FF4F2491FC01EE5ED0
:1023B000FE4F8491882349F190E0880F991FFC011A
:1023C000E65CFE4FA591B491805D9E4FFC01C591E6
:1023D000D4919FB7611108C0F8948C912095822305
:1023E0008C93888182230AC0623051F4F8948C91D6
:1023F000322F309583238C938881822B888304C06D
:10240000F8948C91822B8C939FBFDF91CF9108958C
:102410000F931F93CF93DF931F92CDB7DEB7282F73
:1024200030E0F901E651FF4F8491F901E250FF4F8E
:102430001491F901EE5EFE4F04910023C9F0882348
:1024400021F069830E94A6116981E02FF0E0EE0F70
:10245000FF1FE05DFE4FA591B4919FB7F8948C915A
:10246000611103C01095812301C0812B8C939FBF04
:102470000F90DF91CF911F910F910895CF93DF932C
:10248000282F30E0F901E651FF4F8491F901E25025
:10249000FF4FD491F901EE5EFE4FC491CC2391F031
:1024A00081110E94A611EC2FF0E0EE0FFF1FEA5DF4
:1024B000FE4FA591B4912C912D2381E090E021F461
:1024C00080E002C080E090E0DF91CF910895FC01B0
:1024D000818D228D90E0805C9F4F821B91098F73CC
:1024E00099270895FC01918D828D981731F0828D86
:1024F000E80FF11D858D90E008958FEF9FEF08950F
:10250000FC01918D828D981761F0828DDF01A80FFB
:10251000B11D5D968C91928D9F5F9F73928F90E01D
:1025200008958FEF9FEF089584E094E1892B49F09F
:1025300080E090E0892B29F00E94041481110C9412
:1025400000000895FC01848DDF01A80FB11DA35A7E
:10255000BF4F2C91848D90E001968F739927848FC3
:10256000A689B7892C93A089B1898C9180648C93BA
:10257000938D848D981306C00288F389E02D8081A5
:102580008F7D80830895CF93DF93EC01888D88231E
:10259000C9F0EA89FB89808185FD05C0A889B989D0
:1025A0008C9186FD0FC00FB607FCF5CF808185FFAB
:1025B000F2CFA889B9898C9185FFEDCFCE010E9419
:1025C000A212E7CFDF91CF910895CF92DF92FF92D1
:1025D0000F931F93CF93DF931F92CDB7DEB76C019C
:1025E00081E0D60158968C9358975B969C915B97A7
:1025F0005C968C915C97981307C05096ED91FC9176
:102600005197808185FD2EC0F601038D10E00F5F8C
:102610001F4F0F731127F02EF601848DF81211C091
:102620000FB607FCF9CFD6015096ED91FC9151976A
:10263000808185FFF1CFC60169830E94A212698162
:10264000EBCF838DE80FF11DE35AFF4F6083D60176
:102650005B960C935B975296ED91FC91539780811A
:1026600080620CC0D6015696ED91FC91579760831D
:102670005096ED91FC91519780818064808381E038
:1026800090E00F90DF91CF911F910F91FF90DF901D
:10269000CF900895BF92CF92DF92EF92FF92CF93A7
:1026A000DF93EC016A017B01B22EE889F98982E0AF
:1026B0008083411581EE580761057105A1F060E046
:1026C00079E08DE390E0A70196010E941F1A215046
:1026D0003109410951095695479537952795211597
:1026E00080E1380798F0E889F989108260E874E899
:1026F0008EE190E0A70196010E941F1A2150310936
:10270000410951095695479537952795EC85FD85E3
:102710003083EE85FF852083188EEC89FD89B08299
:10272000EA89FB89808180618083EA89FB898081D5
:1027300088608083EA89FB89808180688083EA8958
:10274000FB8980818F7D8083DF91CF91FF90EF9017
:10275000DF90CF90BF9008951F920F920FB60F9207
:1027600011242F938F939F93EF93FF93E091530541
:10277000F09154058081E0915905F0915A0582FD50
:1027800012C0908180915C058F5F8F7320915D05F1
:10279000821751F0E0915C05F0E0ED5BFA4F958F08
:1027A00080935C0501C08081FF91EF919F918F9193
:1027B0002F910F900FBE0F901F9018951F920F92A0
:1027C0000FB60F9211242F933F934F935F936F9304
:1027D0007F938F939F93AF93BF93EF93FF9383E484
:1027E00095E00E94A212FF91EF91BF91AF919F914E
:1027F0008F917F916F915F914F913F912F910F90AA
:102800000FBE0F901F90189583E495E00E94671209
:1028100021E0892B09F420E0822F089510924605CB
:102820001092450588EE93E0A0E0B0E08093470564
:1028300090934805A0934905B0934A0585E991E036
:10284000909344058093430585EC90E09093500568
:1028500080934F0584EC90E090935205809351054E
:1028600080EC90E0909354058093530581EC90E0C8
:10287000909356058093550582EC90E0909358050F
:102880008093570586EC90E090935A058093590504
:1028900010925C0510925D0510925E0510925F0526
:1028A000089508950E946B110E9451140E94D1094D
:1028B000C4E9D2E10E940D0A2097E1F30E9494122C
:1028C000F9CFCF92DF92EF92FF920F931F93CF93A6
:1028D000DF936C017A01EB01E60EF71E00E010E0D9
:1028E000CE15DF0561F06991D601ED91FC91019063
:1028F000F081E02DC6010995080F191FF1CFC8011D
:10290000DF91CF911F910F91FF90EF90DF90CF90CB
:1029100008956115710581F0DB010D900020E9F744
:10292000AD0141505109461B570BDC01ED91FC9163
:102930000280F381E02D099480E090E00895DC01AD
:10294000ED91FC91DB0114964D915C9115976D9181
:102950007C910280F381E02D09940C94891461EA42
:1029600071E00C9489140F931F93CF93DF93EC01C4
:102970000E9489148C01CE010E94AF14800F911F18
:10298000DF91CF911F910F9108958F929F92AF92F7
:10299000BF92CF92DF92EF92FF920F931F93CF934C
:1029A000DF93CDB7DEB7A1970FB6F894DEBF0FBEA9
:1029B000CDBF7C01C42EE52FCB01D22E19A221E080
:1029C0002D1510F02AE0D22E8E010F5D1F4F8D2C99
:1029D000912CA12CB12C6C2D7E2FA50194010E946D
:1029E0001F1A8C2DD29E80191124015011098A3092
:1029F00014F4805D01C0895CF801808321153105E4
:102A00004105510521F0C22EE32FCA01E4CFB801E0
:102A1000C7010E948914A1960FB6F894DEBF0FBEBD
:102A2000CDBFDF91CF911F910F91FF90EF90DF907D
:102A3000CF90BF90AF909F908F9008952115310552
:102A400041F4DC01ED91FC910190F081E02D642FC7
:102A500009940C94C5140F931F93CF93DF93EC014B
:102A60009A01AB0160E070E00E941E158C01CE015E
:102A70000E94AF14800F911FDF91CF911F910F9192
:102A80000895FC01808191810C94551BCF93DF93B5
:102A9000EC0188819981009711F00E94551B1982E1
:102AA00018821D821C821B821A82DF91CF910895A9
:102AB0000F931F93CF93DF93EC018B016F5F7F4FD9
:102AC000888199810E94E41B009731F09983888363
:102AD0001B830A8381E001C080E0DF91CF911F91C9
:102AE0000F910895CF93DF93EC0188819981892B11
:102AF00029F08A819B818617970760F4CE010E9496
:102B00005815882341F08C819D81892B19F4E88127
:102B1000F981108281E0DF91CF910895EF92FF92C9
:102B20000F931F93CF93DF93EC017B018A01BA01CE
:102B30000E947215811104C0CE010E94461507C083
:102B40001D830C83B701888199810E94B71CCE0137
:102B5000DF91CF911F910F91FF90EF900895FC01AD
:102B600011821082138212821582148261157105FE
:102B700059F0FB0101900020E9F7AF0141505109E4
:102B8000461B570B0C948E150895CF93DF93EC01E1
:102B9000FB018617970761F06081718161157105EE
:102BA00029F0448155810E948E1502C00E9446156D
:102BB000CE01DF91CF910895FC0111821082138222
:102BC0001282158214820C94C515CF93DF93EC0109
:102BD0006115710561F0FB0101900020E9F7AF017B
:102BE00041505109461B570B0E948E1502C00E948E
:102BF0004615CE01DF91CF9108950F931F93CF9388
:102C0000DF93CDB7DEB762970FB6F894DEBF0FBE85
:102C1000CDBF8C01CB01F801118210821382128288
:102C20001582148250E0BE016F5F7F4F0E94BE1C70
:102C3000BE016F5F7F4FC8010E94E51562960FB617
:102C4000F894DEBF0FBECDBFDF91CF911F910F91E2
:102C50000895EF92FF920F931F93CF93DF93EC01B0
:102C60007B010C811D816115710511F480E016C096
:102C70004115510591F0040F151FB8010E947215FE
:102C80008823A1F3288139818C819D81B701820F2E
:102C9000931F0E94B71C1D830C8381E0DF91CF91AD
:102CA0001F910F91FF90EF900895CF93DF93EC0168
:102CB000FB0144815581608171810E942916811137
:102CC00003C0CE010E944615CE01DF91CF91089539
:102CD000FC01848195816817790720F480819181B6
:102CE000009729F41092E00580EE95E00895860F94
:102CF000971F089508955058BB27AA270ED075C175
:102D000066D130F06BD120F031F49F3F11F41EF406
:102D10005BC10EF4E095E7FB51C1E92F77D180F359
:102D2000BA17620773078407950718F071F49EF5C8
:102D30008FC10EF4E0950B2EBA2FA02D0B01B90117
:102D400090010C01CA01A0011124FF27591B99F021
:102D5000593F50F4503E68F11A16F040A22F232F2D
:102D6000342F4427585FF3CF469537952795A7957D
:102D7000F0405395C9F77EF41F16BA0B620B730B24
:102D8000840BBAF09150A1F0FF0FBB1F661F771F95
:102D9000881FC2F70EC0BA0F621F731F841F48F44A
:102DA000879577956795B795F7959E3F08F0B3CFD0
:102DB0009395880F08F09927EE0F979587950895BA
:102DC000D9D008F481E008950CD00FC107D140F0AC
:102DD000FED030F021F45F3F19F0F0C0511139C13D
:102DE000F3C014D198F39923C9F35523B1F3951B7C
:102DF000550BBB27AA2762177307840738F09F5F1C
:102E00005F4F220F331F441FAA1FA9F333D00E2E8A
:102E10003AF0E0E830D091505040E695001CCAF7F7
:102E200029D0FE2F27D0660F771F881FBB1F2617BC
:102E300037074807AB07B0E809F0BB0B802DBF018F
:102E4000FF2793585F4F2AF09E3F510568F0B6C0A8
:102E500000C15F3FECF3983EDCF38695779567956C
:102E6000B795F7959F5FC9F7880F911D9695879540
:102E700097F90895E1E0660F771F881FBB1F62175F
:102E800073078407BA0720F0621B730B840BBA0B1D
:102E9000EE1F88F7E095089504D06894B111D9C069
:102EA0000895BCD088F09F5790F0B92F9927B7515B
:102EB000A0F0D1F0660F771F881F991F1AF0BA95FE
:102EC000C9F712C0B13081F0C3D0B1E00895C0C0DD
:102ED000672F782F8827B85F39F0B93FCCF38695F4
:102EE00077956795B395D9F73EF490958095709551
:102EF00061957F4F8F4F9F4F0895E89409C097FBCE
:102F00003EF490958095709561957F4F8F4F9F4FC0
:102F10009923A9F0F92F96E9BB279395F695879504
:102F200077956795B795F111F8CFFAF4BB0F11F4C7
:102F300060FF1BC06F5F7F4F8F4F9F4F16C088236E
:102F400011F096E911C0772321F09EE8872F762FA4
:102F500005C0662371F096E8862F70E060E02AF0E5
:102F60009A95660F771F881FDAF7880F96958795D1
:102F700097F90895990F0008550FAA0BE0E8FEEFA6
:102F800016161706E807F907C0F012161306E4072D
:102F9000F50798F0621B730B840B950B39F40A2626
:102FA00061F0232B242B252B21F408950A2609F404
:102FB000A140A6958FEF811D811D089597F99F6708
:102FC00080E870E060E008959FEF80EC08950024B1
:102FD0000A941616170618060906089500240A947E
:102FE00012161306140605060895092E0394000C04
:102FF00011F4882352F0BB0F40F4BF2B11F460FF93
:1030000004C06F5F7F4F8F4F9F4F089557FD9058BB
:10301000440F551F59F05F3F71F04795880F97FB9C
:10302000991F61F09F3F79F0879508951216130656
:103030001406551FF2CF4695F1DF08C01616170685
:103040001806991FF1CF86957105610508940895BA
:10305000E894BB2766277727CB0197F908958ADF85
:1030600008F48FEF08950BD0C0CFB1DF28F0B6DFA2
:1030700018F0952309F0A2CFA7CF1124EACFC6DF1D
:10308000A0F3959FD1F3950F50E0551F629FF0017B
:10309000729FBB27F00DB11D639FAA27F00DB11DD4
:1030A000AA1F649F6627B00DA11D661F829F22275D
:1030B000B00DA11D621F739FB00DA11D621F839FE4
:1030C000A00D611D221F749F3327A00D611D231FBA
:1030D000849F600D211D822F762F6A2F11249F5708
:1030E00050408AF0E1F088234AF0EE0FFF1FBB1F2B
:1030F000661F771F881F91505040A9F79E3F5105CA
:1031000070F05CCFA6CF5F3FECF3983EDCF3869582
:1031100077956795B795F795E7959F5FC1F7FE2B74
:10312000880F911D9695879597F90895FA01EE0FEE
:10313000FF1F30962105310599F16115710561F484
:103140008038BFE39B0749F168949038810561F0AE
:103150008038BFEF9B0741F0992342F5FF3FE1051F
:103160003105210511F1E8940894E795D901AA23C6
:1031700029F4AB2FBE2FF85FD0F310C0FF5F70F4BF
:10318000A695E0F7F73950F019F0FF3A38F49F7739
:103190009F930CD00F9007FC905808953EF014CFE9
:1031A00060E070E080E89FE308954FE79F775F93CA
:1031B0004F933F932F939ED02F913F914F915F91CB
:1031C00052DF05C019F40EF0F9CE42CFFDCE26DF56
:1031D000C8F39638C0F707F80F92E8942BE33AEA61
:1031E00048EB5FE74EDF0F920F920F924DB75EB73D
:1031F0000F92C0D0E8E6F0E016D04F915F91EF91CA
:10320000FF91E595EE1FFF1F49F0FE57E068442748
:10321000EE0F441FFA95E1F74195550B32D00F9010
:1032200007FE26C00895DF93CF931F930F93FF925D
:10323000EF92DF927B018C01689405C0DA2EEF01DA
:103240001EDFFE01E894A591259135914591559198
:10325000AEF3EF0162DDFE019701A801DA9479F780
:10326000DF90EF90FF900F911F91CF91DF91089524
:103270009B01AC0160E070E080E89FE3A5CD9ECEAD
:10328000ACC0CCDEE8F39923D9F3940F511DBBF306
:103290009150504094F059F0882332F0660F771F18
:1032A000881F91505040C1F79E3F510544F7880F49
:1032B000911D9695879597F908955F3FACF0983EDC
:1032C0009CF0BB27869577956795B79508F4B16014
:1032D0009395C1F7BB0F58F711F460FFE8CF6F5F0C
:1032E0007F4F8F4F9F4FE3CFB4CE0EF076C06CCEA2
:1032F000689464CE93DEC8F39923D1F3C6F3DF93C9
:10330000CF931F930F93FF92C92FDD2788232AF0B5
:103310002197660F771F881FDAF720E030E040E83A
:103320005FEB9FE3883920F0803E30F021968F7765
:10333000E3DCE0E9F0E003C0DFDCEDEBF0E073DFBD
:103340008B01BE01EC01FB2E6F5771097595771F3C
:10335000880B990BD4DD28E132E741E35FE38FDE90
:10336000AF2D9801AE01FF900F911F91CF91DF918A
:10337000D4DC3BCEFA01DC01AA0FBB1F9B01AC01E0
:10338000BF5728F422273327442750781FC0B7514E
:1033900088F4AB2F0024469537952795011CA395FB
:1033A000D2F3002069F0220F331F441FB395DAF3E4
:1033B0000DD0A1CC61307105A0E88A07B94630F480
:1033C0009B01AC016627772788279078309621F0FB
:1033D000208331834283538308959F3F31F091507E
:1033E00020F4879577956795B795880F911D9695E9
:1033F000879597F90895DB018F939F930E94601A38
:10340000BF91AF91A29F800D911DA39F900DB29F80
:10341000900D1124089597FB072E16F4009407D001
:1034200077FD09D00E94731A07FC05D03EF49095F1
:1034300081959F4F0895709561957F4F0895A1E202
:103440001A2EAA1BBB1BFD010DC0AA1FBB1FEE1F1E
:10345000FF1FA217B307E407F50720F0A21BB30B69
:10346000E40BF50B661F771F881F991F1A9469F7E5
:1034700060957095809590959B01AC01BD01CF0141
:103480000895052E97FB1EF400940E94581A57FDCC
:1034900007D00E941F1A07FC03D04EF40C94581A50
:1034A00050954095309521953F4F4F4F5F4F089570
:1034B00090958095709561957F4F8F4F9F4F0895A0
:1034C0000E948D1AA59F900DB49F900DA49F800D12
:1034D000911D11240895B7FF0C94601A0E94601A80
:1034E000821B930B0895AA1BBB1B51E107C0AA1FA7
:1034F000BB1FA617B70710F0A61BB70B881F991F95
:103500005A95A9F780959095BC01CD010895EE0FCD
:10351000FF1F0590F491E02D0994A29FB001B39F85
:10352000C001A39F700D811D1124911DB29F700DCC
:10353000811D1124911D0895EF920F931F93CF9336
:10354000DF93E80147FF02C034E101C034E0E42F1B
:10355000FF27E7FDF095F7FF03C0F195E195F1092D
:10356000E32E022F2E2FAE010E94EE1CCE01DF9122
:10357000CF911F910F91EF900895CF93DF938230F9
:10358000910510F482E090E0E091E305F091E4050C
:1035900020E030E0A0E0B0E0309739F14081518187
:1035A00048175907B8F04817590771F48281938179
:1035B000109729F013969C938E9312972CC090939A
:1035C000E4058093E30527C02115310531F042174A
:1035D000530718F0A901DB0101C0EF019A01BD01F9
:1035E000DF010280F381E02DD7CF21153105F9F0FD
:1035F000281B390B2430310580F48A819B816115A9
:10360000710521F0FB019383828304C09093E4054C
:103610008093E305FE01329644C0FE01E20FF31FE2
:103620008193919322503109398328833AC02091A4
:10363000E1053091E205232B41F420910201309104
:1036400003013093E2052093E105209100013091C0
:1036500001012115310541F42DB73EB74091040118
:1036600050910501241B350BE091E105F091E20535
:10367000E217F307A0F42E1B3F0B2817390778F049
:10368000AC014E5F5F4F2417350748F04E0F5F1FA8
:103690005093E2054093E1058193919302C0E0E0ED
:1036A000F0E0CF01DF91CF910895CF93DF930097A2
:1036B00009F487C0FC01329713821282C091E3059E
:1036C000D091E405209781F420813181280F391FA2
:1036D0008091E1059091E2058217930779F5F093C7
:1036E000E205E093E1056DC0DE0120E030E0AE17B9
:1036F000BF0750F412964D915C9113979D014115AF
:10370000510509F1DA01F3CFB383A28340815181DE
:10371000840F951F8A179B0771F48D919C911197C7
:10372000840F951F02969183808312968D919C91B0
:103730001397938382832115310529F4F093E405CF
:10374000E093E3053EC0D9011396FC93EE931297E4
:103750004D915D91A40FB51FEA17FB0779F48081A5
:103760009181840F951F0296D90111969C938E9397
:103770008281938113969C938E931297E0E0F0E000
:103780008A819B81009719F0FE01EC01F9CFCE01EF
:10379000029628813981820F931F2091E105309193
:1037A000E2052817390769F4309729F41092E405E7
:1037B0001092E30502C013821282D093E205C093F7
:1037C000E105DF91CF910895A0E0B0E0EAEEFBE1E2
:1037D0000C94581FEC01CB01209719F40E94BD1ADC
:1037E000B8C0FE01E60FF71F9E0122503109E21713
:1037F000F30708F4ACC0D9010D911C91119706177D
:103800001707B8F00530110508F49FC0A80144500F
:1038100051094617570708F498C002501109061BB2
:10382000170B019311936D937C93CF010E94551B4D
:103830008CC05B01A01AB10A4E01800E911EA091AE
:10384000E305B091E405612C712C60E070E0109705
:1038500009F449C0A815B905C9F5ED90FC90119778
:10386000670142E0C40ED11CCA14DB0478F14701A1
:103870008A189B08640142E0C40ED11C1296BC90C9
:1038800012971396AC91B5E0CB16D10440F0B282FA
:10389000A38391828082D9018D939C9309C00E5F8E
:1038A0001F4F0E0D1F1DF90111830083EB2DFA2F01
:1038B0006115710531F0DB011396FC93EE931297BD
:1038C00044C0F093E405E093E3053FC06D917C9123
:1038D00011976616770608F43B01BD0112960D900C
:1038E000BC91A02DB4CF6091E1057091E2056815FF
:1038F0007905E9F468167906D0F4409100015091F9
:1039000001014115510541F44DB75EB760910401C5
:1039100070910501461B570BE417F507C0F4F093AF
:10392000E205E093E105F901918380830EC00E94D6
:10393000BD1A7C01009759F0A801BE010E94AE1C7F
:10394000CE010E94551BC70104C0CE0102C080E019
:1039500090E0CDB7DEB7EEE00C94741FFB01DC0104
:1039600002C001900D9241505040D8F70895FB01DC
:10397000DC0101900D920020E1F7089545325105D8
:1039800020F4423010F00C94C91CFB011082CB01D2
:103990000895BB274A3031F4992322F4BDE2909573
:1039A00081959F4F0C94D51CBB27FB015527AA2757
:1039B000880F991FAA1FA41710F0A41B83955051BC
:1039C000B9F7A05DAA3308F0A95DA193009779F734
:1039D000B111B1931192CB010C94441F6F927F925D
:1039E0009F92AF92BF92CF92DF92EF92FF920F938E
:1039F0001F93CF93DF93CDB7DEB729970FB6F89417
:103A0000DEBF0FBECDBF6A01B22E102F0C3320F4E3
:103A1000FF24F394F00E02C04CE3F42E0F2D27E0A8
:103A2000AE014F5F5F4F0E946C1E7981272F297076
:103A3000213031F0E1FC06C0E0FC06C060E005C0CA
:103A40006DE203C06BE201C060E2AE2DA07173FFB6
:103A500036C0662311F084E001C083E08B1510F4BA
:103A6000B81A01C0B12CA1110BC0F6018B2D90E248
:103A7000882319F091938150FBCFCB0CD11CB12C32
:103A8000662331F0F601608396012F5F3F4F690195
:103A9000C6010396E2FE05C02EE4F601208331E460
:103AA00004C02EE6F601208331E631832283FC0137
:103AB0002B2D30E22223F1F131932150FBCF72FF05
:103AC00040C0662311F084E001C083E08B1510F440
:103AD000B81A01C0B12CA1110BC0F6018B2D90E2D8
:103AE000882319F091938150FBCFCB0CD11CB12CC2
:103AF000662331F0F601608396012F5F3F4F690125
:103B0000C6010396E2FE07C029E4F60120832EE4F5
:103B1000218326E406C029E6F60120832EE62183D0
:103B200026E62283FC012B2D30E2222319F031936B
:103B30002150FBCFFC01EB0DF11D10828EEF9FEFAA
:103B4000B7C0B1E0611101C0B0E04B2F50E01816D2
:103B5000190624F49C012F5F3F4F02C021E030E0A2
:103B6000240F351F112329F0412F50E04F5F5F4F85
:103B700002C040E050E0420F531F2B2D30E04217AF
:103B8000530714F4B41A01C0B12C2E2D287159F426
:103B9000F6012B2D30E2222319F031932150FBCF77
:103BA000CB0CD11CB12CBB2331F0F6016083960104
:103BB0002F5F3F4F6901A1110BC0F6012B2D30E3A0
:103BC000222319F031932150FBCFCB0CD11CB12C07
:103BD000F80E0A81372F3071A32E74FF03C0013312
:103BE00009F4FA941F142CF42F2D293018F028E032
:103BF00001C021E0682F392F97FF02C060E030E05C
:103C0000462F532F612C712C3EE2932EBC01621B78
:103C100071099B01DC01A41BB50BE1E0F0E0EC0FA6
:103C2000FD1FAE0FBF1FE12EF12CF194E194F108BE
:103C30004F3FFFEF5F0731F4F6019082B6016F5FEF
:103C40007F4F6B01841795074CF02417350734F428
:103C5000BD01660D771DFB01118101C010E34150CC
:103C60005109FFEF6F1A7F0AB6016F5F7F4F4E1544
:103C70005F0524F0F60110836B01DACF481759076E
:103C800039F4063320F4053319F4A11001C011E30F
:103C9000F6011083FB018B2D90E2882319F091939C
:103CA0008150FBCFFB01EB0DF11D108280E090E015
:103CB00029960FB6F894DEBF0FBECDBFDF91CF912E
:103CC0001F910F91FF90EF90DF90CF90BF90AF903A
:103CD0009F907F906F900895283008F027E0332759
:103CE000DA01990F311D87FD91600096610571051C
:103CF00039F432602E5F3D9330E32A95E1F7089561
:103D00009F3F30F080387105610509F03C5F3C5FF2
:103D10003D93913008F08068911DDF93CF931F93FE
:103D20000F93FF92EF92192F987F9695E92F969512
:103D30009695E90FFF27E256FE4F99273327EE2489
:103D4000FF24A701E70105900894079428F4360F93
:103D5000E71EF81E491F511D660F771F881F991F08
:103D60000694A1F70590079428F4E70EF81E491F62
:103D7000561FC11D770F881F991F661F0694A1F754
:103D80000590079428F4F80E491F561FC71FD11D30
:103D9000880F991F661F771F0694A1F70590079457
:103DA00020F4490F561FC71FD81F990F661F771F92
:103DB000881F0694A9F784911095177041F0D69545
:103DC000C79557954795F794E7941A95C1F7E4E49A
:103DD000F1E0689415901591359165919591059054
:103DE0007FE27395E118F10A430B560BC90BD0091A
:103DF000C0F7E10CF11E431F561FC91FD01D7EF4F2
:103E0000703311F48A95E6CFE894015030F0080F32
:103E10000AF40027021708F4202F2395022F7A3383
:103E200028F079E37D932A95E9F710C07D932A95D0
:103E300089F6069497956795379517951794E11825
:103E4000F10A430B560BC90BD00998F023957E91CC
:103E500073957A3308F070E37C932013B8F77E9162
:103E600070617D9330F0839571E37D9370E32A95C3
:103E7000E1F71124EF90FF900F911F91CF91DF9107
:103E8000992787FD90950895DC01FC01672F7191BA
:103E90007723E1F7329704C07C916D937083629130
:103EA000AE17BF07C8F308952F923F924F925F92CB
:103EB0006F927F928F929F92AF92BF92CF92DF923A
:103EC000EF92FF920F931F93CF93DF93CDB7DEB79F
:103ED000CA1BDB0B0FB6F894DEBF0FBECDBF099433
:103EE0002A88398848885F846E847D848C849B848A
:103EF000AA84B984C884DF80EE80FD800C811B8198
:103F0000AA81B981CE0FD11D0FB6F894DEBF0FBEC6
:103F1000CDBFED01089512E0C4E4D2E004C0FE017B
:103F20000E94891A2296C634D107C9F7F894FFCFA8
:103F30000000E50580001027E8033200280001009A
:103F4000CD8B0100000000BF0000003F0400030013
:103F5000C864433228211D160B02000000006504CE
:103F60006114D1044404B704E904000000002007F0
:103F7000F306C806D006E306F206436F756C6420AC
:103F80006E6F742066696E6420612076616C69646E
:103F900020424D503038352073656E736F722C207F
:103FA000636865636B20776972696E67210024001E
:103FB0002A002C30002C302C3100564152494F2C15
:103FC0000000000000E5126114671280127212C333
:103FD000120D0A006E616E00696E66006F766600F3
:023FE0002E00B1
:00000001FF
