:100000000C9423010C944B010C944B010C94370578
:100010000C9437050C9437050C944B010C944B0150
:100020000C944B010C944B010C944B010C9410114B
:100030000C944B010C944B010C944B010C944B0110
:100040000C9447110C944B010C9446140C947814A6
:100050000C944B010C944B010C944B010C944B01F0
:100060000C947D080C944B0107634236B79BD8A7CC
:100070001A39685618AEBAAB558C1D3CB7CC5763CD
:10008000BD6DEDFD753EF6177231BF000000803F7B
:1000900008000000BE922449123EABAAAA2ABECD97
:1000A000CCCC4C3E00000080BEABAAAAAA3E000009
:1000B0000000BF000000803F000000000008417801
:1000C000D3BB4387D1133D190E3CC3BD4282AD2B38
:1000D0003E68EC8276BED98FE1A93E4C80EFFFBE30
:1000E00001C4FF7F3F000000000000000008000284
:1000F00001000003040700000000000000000102EE
:1001000004081020408001020408102001020408A5
:100110001020040404040404040402020202020283
:10012000030303030303000000002300260029004B
:1001300000000000250028002B0000000000240023
:1001400027002A0000407A10F35A00A0724E1809C6
:100150000010A5D4E80000E87648170000E40B542E
:10016000020000CA9A3B000000E1F50500008096FD
:100170009800000040420F000000A086010000002F
:10018000102700000000E8030000000064000000E9
:1001900000000A00000000000100000000002C76B2
:1001A000D888DC674F0823DFC1DFAE59E1B1B796CD
:1001B000E5E3E453C63AE651997696E8E6C284262A
:1001C000EB898C9B62ED407C6FFCEFBC9C9F40F206
:1001D000BAA56FA5F490055A2AF75C936B6CF96782
:1001E0006DC11BFCE0E40D47FEF520E6B500D0ED47
:1001F000902E0300943577050080841E08000020AF
:100200004E0A000000C80C333333330F986E12834C
:100210001141EF8D2114893BE65516CFFEE6DB1820
:10022000D1844B381BF77C1D901DA4BBE4242032E5
:1002300084725E228100C9F124ECA1E53D279B0771
:10024000260AA8145A0A11241FBECFEFD8E0DEBF39
:10025000CDBF11E0A0E0B1E0E4E6F0E402C005901B
:100260000D92A63BB107D9F725E0A6EBB1E001C09E
:100270001D92A93EB207E1F712E0C4E4D2E004C047
:100280002297FE010E94231BCE33D107C9F70E949B
:10029000EC140C9425200C9400000895CF92DF926A
:1002A000EF92FF92FC0185899689481B590B6109E1
:1002B0007109A389B4899A01AB010E94FA1A6B01F2
:1002C0007C018FE0F594E794D794C7948A95D1F791
:1002D00065857685882777FD8095982F2BE0660FBA
:1002E000771F881F991F2A95D1F7278530894427C2
:1002F00037FD4095542F2C0D3D1D4E1D5F1D0E9456
:10030000DB1A2C0D3D1D4E1D5F1DCA01B901FF906A
:10031000EF90DF90CF9008951F93CF93DF931F92BC
:10032000CDB7DEB7162F67E770E08AEF91E049831B
:100330000E948307612F8AEF91E00E942007498184
:10034000642F8AEF91E00E9420078AEF91E00F90DE
:10035000DF91CF911F910C949807CF93C62F67E739
:1003600070E08AEF91E00E9483076C2F8AEF91E0A2
:100370000E9420078AEF91E00E94980767E770E0EB
:100380008AEF91E00E94830741E050E067E770E068
:100390008AEF91E00E9476078AEF91E00E94D006F2
:1003A000C82F8AEF91E00E9498078C2FCF91089573
:1003B000CF93DF93C62F67E770E08AEF91E00E944A
:1003C00083076C2F8AEF91E00E9420078AEF91E06B
:1003D0000E94980767E770E08AEF91E00E94830728
:1003E00042E050E067E770E08AEF91E00E94760714
:1003F0008AEF91E00E94D006D82F80E0C82F8AEFC4
:1004000091E00E94D006C82BD92B8AEF91E00E9480
:100410009807CE01DF91CF910895CF93DF93EC0140
:10042000643008F063E068838AEF91E00E945F0720
:1004300060EDCE010E94AD01853509F044C06AEA45
:10044000CE010E94D8019A8389836CEACE010E9472
:10045000D8019C838B836EEACE010E94D8019E83D3
:100460008D8360EBCE010E94D8019A8B898B62EB61
:10047000CE010E94D8019C8B8B8B64EBCE010E9435
:10048000D8019E8B8D8B66EBCE010E94D801988798
:100490008F8368EBCE010E94D8019A8789876AEB27
:1004A000CE010E94D8019C878B876CEBCE010E9405
:1004B000D8019E878D876EEBCE010E94D801988B64
:1004C0008F8781E001C080E0DF91CF910895CF93C5
:1004D000DF93EC014EE264EF0E948C0165E070E076
:1004E00080E090E00E94C01166EFCE01DF91CF91D5
:1004F0000C94D801CF93DF93EC010E946702AC010A
:1005000060E070E0CE010E944E01685F7F4F8F4F28
:100510009F4F34E095958795779567953A95D1F7F4
:100520000E94191820E030E040E251E40E947E175A
:10053000DF91CF910895CF92DF92EF92FF92CF9308
:10054000DF93EC0148814295440F440F407C4C5CA2
:1005500064EF0E948C018881811105C065E070E024
:1005600080E090E012C0813029F468E070E080E023
:1005700090E00BC0823029F46EE070E080E090E003
:1005800004C06AE170E080E090E00E94C01166EF74
:10059000CE010E94D8016C01E12CF12CFE2CED2C37
:1005A000DC2CCC2468EFCE010E94AD01A70196019E
:1005B000282BCA01B901488128E030E0241B310909
:1005C00004C096958795779567952A95D2F7DF9120
:1005D000CF91FF90EF90DF90CF9008952F923F92B0
:1005E0004F925F926F927F928F929F92AF92BF9243
:1005F000CF92DF92EF92FF920F931F93CF93DF93EF
:10060000CDB7DEB72A970FB6F894DEBF0FBECDBFC9
:100610009A8789870E9467028C0189859A850E9442
:100620009B026D837E838F839887A80160E070E0D2
:1006300089859A850E944E014B015C0180EA881AE7
:100640008FE0980AA108B108A5019401C501B40181
:100650000E94951A2B013C010CE075946794579405
:1006600047940A95D1F7A985BA8511962D903C90AB
:1006700012971C9115960D90BC91A02D0E94051B00
:100680006B017C018DE0F594E794D794C7948A952B
:10069000D1F7E985FA85A781B085A30192010E946F
:1006A000051BBB2797FDB095AB2FC80ED91EEA1EC0
:1006B000FB1EF2E0CF0ED11CE11CF11C32E0F594E0
:1006C000E794D794C7943A95D1F780E8D80EE11C07
:1006D000F11CE985FA85A189B289A70196010E94DA
:1006E000FA1ADC01CB014FE0B695A795979587954F
:1006F0004A95D1F789839A83AB83BC836101EE2449
:10070000D7FCE094FE2C52E0CC0CDD1CEE1CFF1C50
:100710005A95D1F7A185B285A30192010E94051BCC
:100720002B013C016BE075946794579447946A954C
:10073000D1F7A381B481A50194010E94051BEBE0D0
:100740009595879577956795EA95D1F7460E571E4B
:10075000681E791EC40CD51CE61CF71C012E04C0B3
:10076000CC0CDD1CEE1CFF1C0A94D2F792E0C90EE3
:10077000D11CE11CF11CC701B60124E030E040E0CF
:1007800050E00E94DB1A8D819E81AF81B885821B6B
:10079000930BA40BB50B9C01AD0160E573EC80E0FD
:1007A00090E004C096958795779567951A95D2F74E
:1007B0000E94951A97FD0DC0660F771F881F991F1D
:1007C00029813A814B815C810E94B91A49015A0101
:1007D0000CC029813A814B815C810E94B91A490180
:1007E0005A01880C991CAA1CBB1C9927B7FC9A9526
:1007F0008B2D7A2D692D9B01AC010E94951A9B01CE
:10080000AC01AEEDBBE00E94FA1A6C01FF24D7FCEC
:10081000F094EF2CA3E4B3EEA50194010E94081B11
:10082000BB2797FDB095AB2FC80ED91EEA1EFB1E45
:100830009FECC90E9EE0D91EE11CF11CA4E0F594CA
:10084000E794D794C794AA95D1F7C80CD91CEA1C91
:10085000FB1CC701B6012A960FB6F894DEBF0FBE87
:10086000CDBFDF91CF911F910F91FF90EF90DF905F
:10087000CF90BF90AF909F908F907F906F905F9040
:100880004F903F902F9008952091F8013091F901F9
:1008900028173907B9F49091B6018091B7019817DC
:1008A00089F0E091B601F0E0E854FE4F808120919C
:1008B000B60130E02F5F3F4F2F7333272093B601EF
:1008C00090E008958FEF9FEF08951F93CF93DF93EC
:1008D000DC015C968D919C915D97009749F481E0D5
:1008E00090E013969C938E93129780E090E03BC02B
:1008F0005196ED91FC91529750962C915097322F32
:1009000030951FB75E964C915E9741FB772770F943
:1009100041FD6095F8944081772311F0422B01C08E
:1009200043234083EC012197F1F748E0508160FFB9
:1009300002C0522B01C053235083EC012197F1F7E1
:100940006695415099F78081772311F0832301C088
:10095000822B80831FBF5C968D919C915D97019740
:10096000F1F781E090E0DF91CF911F910895209100
:10097000F8013091F9012817390781F49091B601F7
:100980008091B701981751F0E091B601F0E0E8547A
:10099000FE4F8081992787FD909508958FEF9FEFF7
:1009A00008952091F8013091F9012817390771F461
:1009B0008091B7012091B60190E0805C9F4F821B2F
:1009C000910960E470E00E94A51A089580E090E02B
:1009D00008952091F8013091F9012817390739F469
:1009E0008FB7F8941092B7011092B6018FBF089597
:1009F000E091F801F091F901E817F90769F4A3898A
:100A0000B4899C918589809589238C931092F901F2
:100A10001092F80181E0089580E00895CF93DF936C
:100A2000EC018A8D9B8D892BF1F08091F8019091DA
:100A3000F9018C179D07B9F0009711F00E94F80496
:100A40008E8D8E7F8E8F1092B7011092B601D0934B
:100A5000F901C093F801EB89FC8980819D89892B7C
:100A6000808381E001C080E0DF91CF9108951F92E3
:100A70000F920FB60F9211242F933F934F935F93D2
:100A80006F937F938F939F93AF93BF93EF93FF9356
:100A9000E091F801F091F901309709F451C0868D89
:100AA000A685B785958581FF04C08C91892329F49B
:100AB00047C08C91892309F043C0A389B4899C91D4
:100AC0008589809589238C93868997890197F1F789
:100AD000208D318DA685B785758558E040E0C90128
:100AE0000197F1F7842F90E095958795482F6C91A9
:100AF000672309F04068515091F7868D81FD40953C
:100B00008091B70190E001968F7399272091B601EB
:100B1000281749F0A091B701B0E0A854BE4F4C93FC
:100B20008093B70103C0868D8160868F828D938DFF
:100B30000197F1F7A389B4898C919589892B8C93BE
:100B4000FF91EF91BF91AF919F918F917F916F91A5
:100B50005F914F913F912F910F900FBE0F901F907B
:100B6000189521E331E0FC01318320830C94F804D3
:100B70001F93CF93DF93EC01162F6E8D66956170F6
:100B800081E06827812F0E94A21261E0812F0E94DC
:100B90006912812F90E0FC01E250FF4FE491E88B55
:100BA000FC01EE5EFE4FE491F0E0EE0FFF1FE05D12
:100BB000FE4F859194919A8B898BDF91CF911F91F4
:100BC00008951F93CF93DF93EC01162F60E0812FE0
:100BD0000E9469128E8D81FD04C061E0812F0E9408
:100BE000A2121C87812F90E0FC01E250FF4FE4919C
:100BF000ED87FC01EE5EFE4FE491F0E0EE0FFF1F8B
:100C0000EA5DFE4F859194919F878E87DF91CF910A
:100C10001F910895FF920F931F93CF93DF93EC01E1
:100C2000F62E522F1B821A8208EE13E020E030E0ED
:100C30000C831D832E833F8381E391E09983888316
:100C40001F8A1E8A198E188E1B8E1A8E1D8E1C8E60
:100C50008E8D8E7F50FB81F98E8F642FCE010E9486
:100C6000B8056F2DCE01DF91CF911F910F91FF90AD
:100C70000C94E105CF93DF93EC019A01AB011B8E3D
:100C80001A8E198E188E1F8A1E8A60E079E08DE315
:100C900090E00E94DB1AC9012430310520F0B9012F
:100CA0006350710902C061E070E07D8F6C8FEC854C
:100CB000E63108F068C0B901769567956431710531
:100CC00018F06351710902C061E070E07F8B6E8B98
:100CD000069718F0C901059702C081E090E0998F4E
:100CE000888FC901880F991F820F931F969587954A
:100CF000969587958D30910510F00C9702C081E094
:100D000090E09B8F8A8F20916800E83050F091E04E
:100D1000EE3008F490E081E001C0880F9A95EAF780
:100D200001C084E0822B809368002C85283038F045
:100D30002E3040F0263148F48CE690E008C08DE675
:100D400090E005C08BE690E002C080E090E09C8BD4
:100D50008B8B283030F481E001C0880F2A95EAF7A8
:100D60000DC0822F90E02E3010F4089701C00E972E
:100D700091E001C0990F8A95EAF7892F8D8B8C8DB0
:100D80009D8D0197F1F7CE01DF91CF910C940E0567
:100D900080912A0290E020912B02821B91090895F4
:100DA00020912B0280912A02281750F4E22FF0E0C4
:100DB000E45DFD4F808190E02F5F20932B0208952A
:100DC0008FEF9FEF0895E0912B0280912A02E817A0
:100DD00030F4F0E0E45DFD4F808190E008958FEF06
:100DE0009FEF08950895CF92DF92EF92FF920F93B5
:100DF0001F93CF93DF937C01CB018A0120910602E0
:100E0000222389F0EB016B01C40ED51ECC15DD0544
:100E100069F06991D701ED91FC910190F081E02D8D
:100E2000C7010995F3CF642F0E945408C801DF91D0
:100E3000CF911F910F91FF90EF90DF90CF90089589
:100E4000CF93DF931F92CDB7DEB76983209106025F
:100E50002223D1F020910702203240F021E030E03F
:100E6000FC013383228380E090E015C0809108026A
:100E7000E82FF0E0E75FFD4F998190838F5F8093CB
:100E800008028093070205C061E0CE0101960E942E
:100E9000540881E090E00F90DF91CF910895FC011C
:100EA0001382128248EE53E060E070E04483558381
:100EB0006683778381E491E0918380830895109223
:100EC0002B0210922A0210920802109207020C9430
:100ED0009F07862F413208F040E26CE272E00E94E8
:100EE000BD0710922B0280932A02089521E00C94F2
:100EF000690781E08093060260932902109208023C
:100F00001092070208950C9479070F93062F21E0A1
:100F10004091070269E072E0809129020E94010875
:100F20001092080210920702109206020F91089583
:100F300061E00C9485078AEF91E00C944F071092C2
:100F4000B90281E08093B7021092B60261E082E1BB
:100F50000E94A21261E083E10E94A212E9EBF0E09C
:100F600080818E7F808380818D7F808388E48093E1
:100F7000B80085E48093BC000895413208F03FC07A
:100F80009091B9029111FCCF91E09093B902209316
:100F9000B7022FEF20934C0210929102240F20935E
:100FA00090029093B8029091B802880F892B809399
:100FB000B8028091B602813041F41092B60280915D
:100FC000B8028093BB0085EC01C085EE8093BC0025
:100FD0008091B9028130E1F380919102841710F47D
:100FE0004091910222E932E0FB01D9018A2F821B54
:100FF000841718F48D918193F9CF842F089580E0A0
:1010000008950F93413208F046C09091B9029111B2
:10101000FCCF92E09093B9020093B7029FEF9093B8
:101020004C021092910240939002FB0162E972E03F
:10103000DB019A2F961B941718F491919D93F9CF89
:101040001092B8029091B802880F892B8093B80251
:101050008091B602813041F41092B6028091B802BC
:101060008093BB0085EC01C085EE8093BC002223F9
:1010700021F08091B9028230E1F380914C028F3FE0
:1010800061F080914C02803251F080914C028033AB
:1010900041F483E007C081E005C080E003C082E046
:1010A00001C084E00F910895613298F42091B90253
:1010B000243089F460936E02FC0180E792E0DC0149
:1010C0002A2F281B261718F421912D93F9CF80E0A1
:1010D000089581E0089582E0089585ED8093BC0035
:1010E0008091BC0084FDFCCF1092B902089585EC7C
:1010F0008093BC001092B90208951F920F920FB610
:101100000F9211242F933F934F935F936F937F938D
:101110008F939F93AF93BF93EF93FF938091B90009
:10112000887F803609F49CC068F5883209F45BC07A
:1011300090F4803109F454C038F4882309F4F5C0E0
:10114000883009F44DC0F5C0883109F44CC08032B4
:1011500009F45DC0EEC0803409F468C048F48033FF
:1011600009F455C0883309F0E4C080934C02A8C04C
:10117000803509F44FC0883509F45DC0883409F022
:10118000D8C0D5C0883909F4C6C0A8F4883709F496
:1011900067C038F4883609F463C0803709F460C04A
:1011A000C8C0883809F4B7C0803909F45FC08038F6
:1011B00009F0BFC05BC0803B09F485C038F4803AB9
:1011C00009F466C0883A09F47EC0B3C0803C09F4D3
:1011D000A6C0883C09F4A3C0883B09F489C0A9C013
:1011E0008091B80210C0909191028091900298175E
:1011F00070F5E091910281E08E0F80939102F0E012
:10120000EE56FD4F80818093BB0085EC85C08093B6
:101210004C028DC0E091910281E08E0F809391028B
:101220008091BB00F0E0EE56FD4F808390919102DB
:10123000809190026DC0E091910281E08E0F8093C9
:1012400091028091BB00F0E0EE56FD4F80838091CB
:10125000B70281116CC081E08093B60284EA60C05D
:1012600083E08093B90210924D02CFCF80914D025E
:10127000803208F050C0E0914D0281E08E0F8093E3
:101280004D028091BB00F0E0E25BFD4F8083BDCF5B
:1012900080914D02803230F4E0914D02F0E0E25B4B
:1012A000FD4F10820E946D0860914D0270E0E09148
:1012B000B202F091B3028EE492E0099510924D02D1
:1012C0000E94770836C084E08093B90210926F02C2
:1012D00010926E02E091B402F091B50209958091EE
:1012E0006E02811105C081E080936E02109270023F
:1012F000E0916F0281E08E0F80936F02F0E0E05981
:10130000FD4F80818093BB0090916F0280916E02AF
:10131000981708F47ACF85E88093BC000AC085EC62
:101320008093BC001092B90204C010924C020E943B
:101330006D08FF91EF91BF91AF919F918F917F9138
:101340006F915F914F913F912F910F900FBE0F9032
:101350001F901895EF920F931F93CF93DF93CDE0DB
:10136000D0E0EE24E39400ED17E020E030E041E02F
:1013700064EF71E080E090E00E94401064E670E06D
:1013800080E090E00E94C011219759F7CFE0D0E0B3
:10139000EE24E39400ED17E020E030E041E06CEB58
:1013A00072E080E090E00E94401064E670E080E02F
:1013B00090E00E94C011219759F7DF91CF911F91C2
:1013C0000F91EF90089526E040E855E260E070E06C
:1013D00087E495E00E94E41340E855E260E070E0A5
:1013E0008BE195E00E943A068AEF91E00E945F0748
:1013F00061E0809120010E94691261E080911E01EC
:101400000E94691261E086E00E94691261E08091A9
:101410001E010E94A21261E0809120010E94A2128E
:1014200060E08091CA020E9469120E94AA0963E0EA
:1014300084E095E00E940D02811107C06DE471E027
:1014400087E495E00E944D15FFCF089520E043E02A
:1014500062E08BE195E00E940A0684E095E00E943C
:101460004D010E9491116093F4047093F5048093F0
:10147000F6049093F7040E9491116093F004709326
:10148000F1048093F2049093F3040E94911160930D
:10149000EC047093ED048093EE049093EF040E94AB
:1014A00091116093E8047093E9048093EA049093A7
:1014B000EB0408958BE195E00C94B1052F923F92D7
:1014C0004F925F926F927F928F929F92AF92BF9254
:1014D000CF92DF92EF92FF920F931F93CF93DF9300
:1014E000CDB7DEB7C656D1090FB6F894DEBF0FBE32
:1014F000CDBF0E9491110E94171865966CAF7DAF09
:101500008EAF9FAF659784E095E00E94EE026093F6
:101510001201709313018093140190931501EEEC66
:10152000F2E0048115812681378101931193219383
:10153000319323E0E233F207A1F760932E03709317
:101540002F038093300390933103EEECF2E0C12C33
:10155000D12C76010191119121913191C00ED11EB2
:10156000E21EF31E33E0E233F307A1F70E941918DD
:1015700020E836EE45EC57E40E947E1721EB3CED67
:1015800042E45EE30E9430199B01AC0160E070E030
:1015900080E89FE30E94151720E03AE24DE257E40D
:1015A0000E94CD186093FC047093FD048093FE04A8
:1015B0009093FF04C701B60129E130E040E050E01C
:1015C0000E94DB1ACA01B9010E94191869966CAF12
:1015D0007DAF8EAF9FAF699720E836EE45EC57E4BC
:1015E0000E947E1721EB3CED42E45EE30E9430193D
:1015F0009B01AC0160E070E080E89FE30E9415175A
:1016000020E03AE24DE257E40E94CD186093BE021A
:101610007093BF028093C0029093C1020E94911107
:101620000E9417186B017C0120E030E04AE754E487
:101630006091C2027091C3028091C4029091C50270
:101640000E9416179B01AC01C701B6010E94C91880
:1016500087FD36C0C090BE02D090BF02E090C002AD
:10166000F090C1022091BA023091BB024091BC02BD
:101670005091BD02C701B6010E94151720E030E06D
:1016800048EC52E40E94CD186093C6027093C702E2
:101690008093C8029093C902C092BA02D092BB0252
:1016A000E092BC02F092BD020E9491110E941718B4
:1016B0006093C2027093C3028093C4029093C502E8
:1016C0000E94911120910A0130910B016901EE24D1
:1016D000D7FCE094FE2C0091F0041091F1042091CD
:1016E000F2043091F304C00ED11EE21EF31E6C15FD
:1016F0007D058E059F0508F47DC08091CA020E9479
:101700002312BC01882777FD8095982F0E94191815
:101710002EE230E940EA5BE30E94CD186093F804C2
:101720007093F9048093FA049093FB040E94911142
:101730006093E8047093E9048093EA049093EB04C7
:1017400026E636E646E650E46091F8047091F90426
:101750008091FA049091FB040E94C918181654F461
:1017600061E080911E010E94A21260E08091200140
:101770000E94A212C090F804D090F904E090FA04FC
:10178000F090FB042AE939E949E550E4C701B601C4
:101790000E94C9181816A4F426E636E646E650E478
:1017A000C701B6010E947A1787FF0AC061E08091E5
:1017B0001E010E94A21261E0809120010E94A212EB
:1017C0002AE939E949E550E46091F8047091F90497
:1017D0008091FA049091FB040E947A17181654F035
:1017E00060E080911E010E94A21261E080912001C0
:1017F0000E94A2120E94911120910A0130910B01C6
:101800006901EE24D7FCE094FE2C0091F0041091C5
:10181000F1042091F2043091F304C00ED11EE21EB7
:10182000F31E6C157D058E059F0508F45AC084E0F3
:1018300095E00E947A020E94E6176093000570937B
:101840000105809302059093030570931101609345
:1018500010010E9491116093F0047093F104809341
:10186000F2049093F3048BE195E00E94D104892B5C
:1018700021F081E08093CD0202C01092CD028091D0
:10188000CC02882371F120E030E040E751E4609120
:1018900006017091070180910801909109010E9451
:1018A000C91887FD08C01092060110920701109216
:1018B00008011092090120E030E040E85FE3609108
:1018C00006017091070180910801909109010E9421
:1018D0001617609306017093070180930801909397
:1018E000090186E00E94D812019711F460E001C05E
:1018F00061E086E00E94A21200910C0110910D019E
:101900004AE0E42E44E0F42E26E034E0EAE3F3E09B
:1019100081E090E008171907B4F0D7014D915D916F
:101920006D917D917D01D9014D935D936D937D9373
:101930009D014481558166817781419351936193E3
:1019400071930196E7CFC801880F991F880F991FDF
:10195000FC01EA5FFB4F4091FC045091FD04609153
:10196000FE047091FF044083518362837383FC0102
:10197000E65CFC4F65962CAD3DAD4EAD5FAD659719
:10198000208331834283538340910E0150910F0194
:101990006B965FAF4EAF6B97C801841B950B299672
:1019A0009FAF8EAF2997880F991F880F991FDC0171
:1019B000A65CBC4FA196BFAFAEAFA1972D913D9154
:1019C0004D915C91A5962CAF3DAF4EAF5FAFA59703
:1019D000FC01EA5FFB4FA796FFAFEEAFA797212C64
:1019E000312C27961CAE1DAE1EAE1FAE27976196FA
:1019F0001CAE1DAE1EAE1FAE61972D961CAE1DAE69
:101A00001EAE1FAE2D97812C912C5401240135015F
:101A100029968EAD9FAD2997801791070CF07EC057
:101A2000A196EEADFFADA197E20DF31DA5962CADED
:101A30003DAD4EAD5FADA59760817181828193818F
:101A40000E9415176B017C01A796EEADFFADA7971D
:101A5000E20DF31D20813181428153816F962CAFBD
:101A60003DAF4EAF5FAF6F970E94CD189B01AC01A9
:101A7000C301B2010E9416172B013C01A701960178
:101A8000C501B4010E9416174B015C016F962CAD85
:101A90003DAD4EAD5FAD6F972D966CAD7DAD8EAD0E
:101AA0009FAD2D970E9416172D966CAF7DAF8EAF10
:101AB0009FAF2D97A7019601C701B6010E94CD18CF
:101AC0009B01AC0161966CAD7DAD8EAD9FAD619714
:101AD0000E94161761966CAF7DAF8EAF9FAF619776
:101AE000A701960127966CAD7DAD8EAD9FAD279772
:101AF0000E94161727966CAF7DAF8EAF9FAF2797CA
:101B000029964EAD5FAD29974F5F5F4F29965FAF26
:101B10004EAF299754E0250E311C7ACF8091CC022C
:101B2000882349F0C0900601D0900701E090080199
:101B3000F09009014FC06B96AEADBFAD6B97BD0184
:101B4000882777FD8095982F0E9419186B017C01DA
:101B5000A30192010E94CD182B013C012D962CADC2
:101B60003DAD4EAD5FAD2D97C501B4010E94CD18BE
:101B70009B01AC01C301B2010E94151720E030E0C7
:101B80004AE754E40E94CD184B015C0161962CADEC
:101B90003DAD4EAD5FAD6197C701B6010E94CD1856
:101BA0006B017C0127962CAD3DAD4EAD5FAD279707
:101BB000CA01B9010E94CD189B01AC01C701B60151
:101BC0000E9415179B01AC01C501B4010E947E174C
:101BD0006B017C012091360330913703409138032B
:101BE0005091390365966CAD7DAD8EAD9FAD659717
:101BF0000E94151720913203309133034091340332
:101C0000509135030E94C91818160CF0CBC0659688
:101C10002CAD3DAD4EAD5FAD65972093360330934F
:101C20003703409338035093390320911A013091C0
:101C30001B0140911C0150911D01C701B6010E947A
:101C4000C91818160CF05DC020E030E040E251E405
:101C5000C701B6010E947A1718160CF452C0809181
:101C6000CD0281114EC020E030E040EF51E4C701C9
:101C7000B6010E9416179B01AC01C701B6010E9474
:101C8000CD189B01AC0160E070E889E094E40E940B
:101C9000151760933203709333038093340390934A
:101CA000350320E030E040EA51E4C701B6010E946C
:101CB00016179B01AC01C701B6010E94CD189B010C
:101CC000AC0160E070E082ED93E40E9415170E9481
:101CD000EB174B015C0120E030E048E453E4C7011E
:101CE000B6010E94CD1820E030E04FEA54E40E9493
:101CF00016170E94EB17EE24E394950184014AE045
:101D00004FC020E030E040E251E4C701B6010E943C
:101D1000C9181816E4F48091CD02811118C080E032
:101D200090E0A0E2B3E48093320390933303A09356
:101D30003403B0933503EE24E39408E710E020E089
:101D400030E04AE06AE77DE080E090E029C0209141
:101D50001601309117014091180150911901C701E6
:101D6000B6010E947A1787FF1DC08091CD028111B4
:101D700019C080E090E0A6E1B4E480933203909330
:101D80003303A0933403B0933503EE24E39404E5C6
:101D900011E020E030E04AE06CE271E080E090E0A9
:101DA0000E9440100E9491110E9491110091EC0438
:101DB0001091ED042091EE043091EF04035B1E4F6F
:101DC0002F4F3F4F601771078207930708F430C108
:101DD00065E871E0CE0101960E94491660911001FC
:101DE000709111014AE0CE0107960E94971662E9B0
:101DF00071E0CE010D960E94491668E871E0CE01AF
:101E000043960E9449166091F8047091F9048091FC
:101E1000FA049091FB040CED14E022E042E00E94F1
:101E2000361BBC01CE0149960E94491662E971E059
:101E3000CE014F960E94491620E030E040E251E486
:101E40006091C6027091C7028091C8029091C90248
:101E50000E947E1702EE14E022E042E00E94361B50
:101E6000BC01CE0185960E94491662E971E0CE015F
:101E70008B960E94491620E030E048EC52E46996C7
:101E80006CAD7DAD8EAD9FAD69970E947E1702ED62
:101E900014E020E040E00E94361BBC01CE01C79652
:101EA0000E9449166DE871E0CE01C1960E94491664
:101EB000BE01695C7F4FCE01C1960E94EF16BE0144
:101EC000655D7F4F0E94EF16BE016B5D7F4F0E94E4
:101ED000EF16BE01615E7F4F0E94EF16BE01675E86
:101EE0007F4F0E94EF16BE016D5E7F4F0E94EF167E
:101EF000BE01635F7F4F0E94EF16BE01695F7F4F97
:101F00000E94EF16BE016F5F7F4F0E94EF16BC016B
:101F1000CE01CD960E947616CE01C1960E94DB15A9
:101F2000CE01C7960E94DB15CE018B960E94DB1571
:101F3000CE0185960E94DB15CE014F960E94DB15DF
:101F4000CE0149960E94DB15CE0143960E94DB1517
:101F5000CE010D960E94DB15CE0107960E94DB157F
:101F6000CE0101960E94DB15E12CF12C00E010E07F
:101F700023968EAD9FAD2397E816F90660F4B7015E
:101F8000CE01CD960E940217DC018C910827BFEF8D
:101F9000EB1AFB0AEDCF61E871E087E495E00E945F
:101FA0004715BE01635C7F4F87E495E00E943915B9
:101FB00063E871E087E495E00E94471540E150E056
:101FC000B80187E495E00E94C51561E871E08BE1F6
:101FD00095E00E944715BE01635C7F4F8BE195E061
:101FE0000E94391563E871E08BE195E00E94471586
:101FF00040E150E0B8018BE195E00E94C5150E94D8
:1020000091116093EC047093ED048093EE0490932F
:10201000EF0486E00E94D812019711F460E001C03D
:1020200061E086E00E94A212CE01CD960E94DB15EF
:10203000CA59DF4F0FB6F894DEBF0FBECDBFDF9198
:10204000CF911F910F91FF90EF90DF90CF90BF90B5
:10205000AF909F908F907F906F905F904F903F9048
:102060002F900895EFE6F0E080818D7F808382E0FD
:102070008093810081E08093800029982A980895B8
:102080004F925F926F927F928F929F92AF92BF9288
:10209000CF92DF92EF92FF920F931F93CF93DF9334
:1020A00000D000D0CDB7DEB72B013C01480159016B
:1020B0000E2D611571058105910509F486C0442333
:1020C00009F483C0142F4B3008F01AE084B1866005
:1020D00084B960E072E18AE790E0A30192010E9476
:1020E000B91A69017A0181E0C81AD108E108F1083A
:1020F000C114D104E1E0EE06F10460F0CD2CDE2C39
:10210000EF2CFF24F1E0CF1AD108E108F10894E0A8
:10211000792E02C077247394E12FF0E0EF5DFE4F3B
:10212000208130E040E050E0C701B6010E94B91ABA
:1021300081149104A104B104D9F00023C9F02983CA
:102140003A834B835C830E949111680D791D8A1D2F
:102150009B1D60933A0570933B0580933C059093DB
:102160003D0580916F00826080936F003A812981E4
:10217000D0928700C0928600809184009091850063
:10218000A0E0B0E0C816D906EA06FB0620F4D0921B
:102190008500C0928400872D8061809381003093F8
:1021A0008B0020938A00309389002093880080EB75
:1021B0008093800081149104A104B104E1F0011125
:1021C0001AC0C501B4010E94C0110F900F900F906A
:1021D0000F90DF91CF911F910F91FF90EF90DF90C3
:1021E000CF90BF90AF909F908F907F906F905F90B7
:1021F0004F900C9432100F900F900F900F90DF9132
:10220000CF911F910F91FF90EF90DF90CF90BF90F3
:10221000AF909F908F907F906F905F904F900895B8
:102220001F920F920FB60F9211240F931F932F93AB
:102230003F934F935F936F937F938F939F93AF934E
:10224000BF93EF93FF930E94911100913A05109173
:102250003B0520913C0530913D05601771078207D1
:10226000930710F00E943210FF91EF91BF91AF9150
:102270009F918F917F916F915F914F913F912F919E
:102280001F910F910F900FBE0F901F9018951F92E6
:102290000F920FB60F9211242F933F938F939F931A
:1022A000AF93BF9380913F0590914005A091410568
:1022B000B091420530913E0523E0230F2D3720F4E5
:1022C0000196A11DB11D05C026E8230F0296A11D90
:1022D000B11D20933E0580933F0590934005A09348
:1022E0004105B09342058091430590914405A0912A
:1022F0004505B09146050196A11DB11D809343058A
:1023000090934405A0934505B0934605BF91AF91C6
:102310009F918F913F912F910F900FBE0F901F9023
:1023200018952FB7F89460913F0570914005809102
:102330004105909142052FBF08953FB7F8948091D1
:10234000430590914405A0914505B091460526B5F9
:10235000A89B05C02F3F19F00196A11DB11D3FBFDD
:102360006627782F892F9A2F620F711D811D911D6D
:1023700042E0660F771F881F991F4A95D1F708958D
:10238000CF92DF92EF92FF92CF93DF936B017C01AC
:102390000E949D11EB01C114D104E104F10489F004
:1023A0000E9414170E949D116C1B7D0B683E7340A8
:1023B00090F381E0C81AD108E108F108C851DC4F58
:1023C000EACFDF91CF91FF90EF90DF90CF9008950B
:1023D000789484B5826084BD84B5816084BD85B500
:1023E000826085BD85B5816085BDEEE6F0E08081C7
:1023F00081608083E1E8F0E01082808182608083E8
:10240000808181608083E0E8F0E08081816080836A
:10241000E1EBF0E0808184608083E0EBF0E080819C
:1024200081608083EAE7F0E080818460808380813E
:1024300082608083808181608083808180688083E6
:102440001092C10008958E3008F08E508770209150
:102450002C0190E4299F90011124822B80937C0011
:1024600080917A00806480937A0080917A0086FD62
:10247000FCCF809178002091790090E0922B089514
:10248000833081F028F4813099F08230A1F00895F2
:102490008730A9F08830B9F08430D1F48091800081
:1024A0008F7D03C0809180008F7780938000089596
:1024B00084B58F7702C084B58F7D84BD08958091E7
:1024C000B0008F7703C08091B0008F7D8093B00003
:1024D0000895CF93DF9390E0FC01E250FF4F2491E9
:1024E000FC01EE5EFE4F8491882349F190E0880F55
:1024F000991FFC01E65CFE4FA591B491805D9E4F53
:10250000FC01C591D4919FB7611108C0F8948C91DA
:10251000209582238C93888182230AC0623051F4F3
:10252000F8948C91322F309583238C938881822B61
:10253000888304C0F8948C91822B8C939FBFDF9189
:10254000CF9108950F931F93CF93DF931F92CDB731
:10255000DEB7282F30E0F901E651FF4F8491F901F1
:10256000E250FF4F1491F901EE5EFE4F04910023FB
:10257000C9F0882321F069830E9440126981E02F0D
:10258000F0E0EE0FFF1FE05DFE4FA591B4919FB705
:10259000F8948C91611103C01095812301C0812BA7
:1025A0008C939FBF0F90DF91CF911F910F91089552
:1025B000CF93DF93282F30E0F901E651FF4F84914C
:1025C000F901E250FF4FD491F901EE5EFE4FC49144
:1025D000CC2391F081110E944012EC2FF0E0EE0F1D
:1025E000FF1FEA5DFE4FA591B4912C912D2381E050
:1025F00090E021F480E002C080E090E0DF91CF9194
:102600000895FC01818D228D90E0805C9F4F821B9C
:1026100091098F7399270895FC01918D828D9817E8
:1026200031F0828DE80FF11D858D90E008958FEFD8
:102630009FEF0895FC01918D828D981761F0828D36
:10264000DF01A80FB11D5D968C91928D9F5F9F73E6
:10265000928F90E008958FEF9FEF08958EE994E1B7
:10266000892B49F080E090E0892B29F00E949E148C
:1026700081110C9400000895FC01848DDF01A80FE6
:10268000B11DA35ABF4F2C91848D90E001968F739A
:102690009927848FA689B7892C93A089B1898C91B9
:1026A00080648C93938D848D981306C00288F3897F
:1026B000E02D80818F7D80830895CF93DF93EC019F
:1026C000888D8823C9F0EA89FB89808185FD05C052
:1026D000A889B9898C9186FD0FC00FB607FCF5CF8C
:1026E000808185FFF2CFA889B9898C9185FFEDCFD4
:1026F000CE010E943C13E7CFDF91CF910895CF9296
:10270000DF92FF920F931F93CF93DF931F92CDB76A
:10271000DEB76C0181E0D60158968C9358975B9692
:102720009C915B975C968C915C97981307C0509630
:10273000ED91FC915197808185FD2EC0F601038DAE
:1027400010E00F5F1F4F0F731127F02EF601848DDD
:10275000F81211C00FB607FCF9CFD6015096ED91D3
:10276000FC915197808185FFF1CFC60169830E945A
:102770003C136981EBCF838DE80FF11DE35AFF4FC6
:102780006083D6015B960C935B975296ED91FC911A
:102790005397808180620CC0D6015696ED91FC91D2
:1027A000579760835096ED91FC915197808180649A
:1027B000808381E090E00F90DF91CF911F910F9186
:1027C000FF90DF90CF900895BF92CF92DF92EF926B
:1027D000FF92CF93DF93EC016A017B01B22EE8896F
:1027E000F98982E08083411581EE58076105710502
:1027F000A1F060E079E08DE390E0A70196010E94EE
:10280000B91A215031094109510956954795379513
:102810002795211580E1380798F0E889F989108219
:1028200060E874E88EE190E0A70196010E94B91A71
:1028300021503109410951095695479537952795FA
:10284000EC85FD853083EE85FF852083188EEC892D
:10285000FD89B082EA89FB89808180618083EA8971
:10286000FB89808188608083EA89FB898081806818
:102870008083EA89FB8980818F7D8083DF91CF917E
:10288000FF90EF90DF90CF90BF9008951F920F922E
:102890000FB60F9211242F938F939F93EF93FF9373
:1028A000E0915705F09158058081E0915D05F09128
:1028B0005E0582FD12C09081809160058F5F8F73ED
:1028C00020916105821751F0E0916005F0E0E95B2D
:1028D000FA4F958F8093600501C08081FF91EF9141
:1028E0009F918F912F910F900FBE0F901F90189571
:1028F0001F920F920FB60F9211242F933F934F9375
:102900005F936F937F938F939F93AF93BF93EF9357
:10291000FF9387E495E00E943C13FF91EF91BF91F4
:10292000AF919F918F917F916F915F914F913F9167
:102930002F910F900FBE0F901F90189587E495E090
:102940000E94011321E0892B09F420E0822F0895D1
:1029500010924A051092490588EE93E0A0E0B0E09D
:1029600080934B0590934C05A0934D05B0934E0575
:1029700088E991E0909348058093470585EC90E0C5
:10298000909354058093530584EC90E09093560502
:102990008093550580EC90E09093580580935705FF
:1029A00081EC90E090935A058093590582EC90E079
:1029B00090935C0580935B0586EC90E090935E05B8
:1029C00080935D051092600510926105109262057A
:1029D00010926305089508950E94E8110E94EB1477
:1029E0000E94E309CEE2D3E10E945E0A2097E1F360
:1029F0000E942E13F9CFCF92DF92EF92FF920F93A6
:102A00001F93CF93DF936C017A01EB01E60EF71E63
:102A100000E010E0CE15DF0561F06991D601ED917F
:102A2000FC910190F081E02DC6010995080F191F56
:102A3000F1CFC801DF91CF911F910F91FF90EF90DF
:102A4000DF90CF9008956115710581F0DB010D9045
:102A50000020E9F7AD0141505109461B570BDC013D
:102A6000ED91FC910280F381E02D099480E090E0EB
:102A70000895DC01ED91FC91DB0114964D915C9180
:102A800015976D917C910280F381E02D09940C944F
:102A9000231564EA71E00C9423150F931F93CF93D1
:102AA000DF93EC010E9423158C01CE010E94491591
:102AB000800F911FDF91CF911F910F9108958F92F9
:102AC0009F92AF92BF92CF92DF92EF92FF920F93BD
:102AD0001F93CF93DF93CDB7DEB7A1970FB6F894CE
:102AE000DEBF0FBECDBF7C01C42EE52FCB01D22EA1
:102AF00019A221E02D1510F02AE0D22E8E010F5DD3
:102B00001F4F8D2C912CA12CB12C6C2D7E2FA5014B
:102B100094010E94B91A8C2DD29E80191124015063
:102B200011098A3014F4805D01C0895CF80180834A
:102B3000211531054105510521F0C22EE32FCA01AF
:102B4000E4CFB801C7010E942315A1960FB6F894EF
:102B5000DEBF0FBECDBFDF91CF911F910F91FF90D0
:102B6000EF90DF90CF90BF90AF909F908F9008959F
:102B70002115310541F4DC01ED91FC910190F081CA
:102B8000E02D642F09940C945F150F931F93CF933E
:102B9000DF93EC019A01AB0160E070E00E94B81590
:102BA0008C01CE010E944915800F911FDF91CF91BA
:102BB0001F910F910895FC01808191810C94EF1B6E
:102BC000CF93DF93EC0188819981009711F00E94E7
:102BD000EF1B198218821D821C821B821A82DF91D0
:102BE000CF9108950F931F93CF93DF93EC018B0147
:102BF0006F5F7F4F888199810E947E1C009731F022
:102C0000998388831B830A8381E001C080E0DF9180
:102C1000CF911F910F910895CF93DF93EC0188819D
:102C20009981892B29F08A819B818617970760F407
:102C3000CE010E94F215882341F08C819D81892B61
:102C400019F4E881F981108281E0DF91CF91089534
:102C5000EF92FF920F931F93CF93DF93EC017B01D1
:102C60008A01BA010E940C16811104C0CE010E9493
:102C7000E01507C01D830C83B701888199810E94EC
:102C8000511DCE01DF91CF911F910F91FF90EF90D9
:102C90000895FC011182108213821282158214821F
:102CA0006115710559F0FB0101900020E9F7AF01B2
:102CB00041505109461B570B0C9428160895CF9389
:102CC000DF93EC01FB018617970761F0608171814A
:102CD0006115710529F0448155810E94281602C0B2
:102CE0000E94E015CE01DF91CF910895FC01118281
:102CF000108213821282158214820C945F16CF9375
:102D0000DF93EC016115710561F0FB01019000207A
:102D1000E9F7AF0141505109461B570B0E94281695
:102D200002C00E94E015CE01DF91CF9108950F936C
:102D30001F93CF93DF93CDB7DEB762970FB6F894AA
:102D4000DEBF0FBECDBF8C01CB01F8011182108216
:102D5000138212821582148250E0BE016F5F7F4F92
:102D60000E94581DBE016F5F7F4FC8010E947F16F1
:102D700062960FB6F894DEBF0FBECDBFDF91CF9144
:102D80001F910F910895EF92FF920F931F93CF938E
:102D9000DF93EC017B010C811D816115710511F43C
:102DA00080E016C04115510591F0040F151FB801C0
:102DB0000E940C168823A1F3288139818C819D8182
:102DC000B701820F931F0E94511D1D830C8381E068
:102DD000DF91CF911F910F91FF90EF900895CF93C6
:102DE000DF93EC01FB0144815581608171810E9478
:102DF000C316811103C0CE010E94E015CE01DF9100
:102E0000CF910895FC01848195816817790720F49A
:102E100080819181009729F41092E40584EE95E079
:102E20000895860F971F089508955058BB27AA2725
:102E30000ED075C166D130F06BD120F031F49F3FD8
:102E400011F41EF45BC10EF4E095E7FB51C1E92FCC
:102E500077D180F3BA17620773078407950718F0D4
:102E600071F49EF58FC10EF4E0950B2EBA2FA02DB4
:102E70000B01B90190010C01CA01A0011124FF2727
:102E8000591B99F0593F50F4503E68F11A16F04022
:102E9000A22F232F342F4427585FF3CF4695379521
:102EA0002795A795F0405395C9F77EF41F16BA0BE6
:102EB000620B730B840BBAF09150A1F0FF0FBB1F94
:102EC000661F771F881FC2F70EC0BA0F621F731FDD
:102ED000841F48F4879577956795B795F7959E3F3A
:102EE00008F0B3CF9395880F08F09927EE0F9795C8
:102EF00087950895D9D008F481E008950CD00FC1CA
:102F000007D140F0FED030F021F45F3F19F0F0C05F
:102F1000511139C1F3C014D198F39923C9F3552342
:102F2000B1F3951B550BBB27AA27621773078407BC
:102F300038F09F5F5F4F220F331F441FAA1FA9F372
:102F400033D00E2E3AF0E0E830D091505040E69564
:102F5000001CCAF729D0FE2F27D0660F771F881FC5
:102F6000BB1F261737074807AB07B0E809F0BB0BB4
:102F7000802DBF01FF2793585F4F2AF09E3F5105D8
:102F800068F0B6C000C15F3FECF3983EDCF3869575
:102F900077956795B795F7959F5FC9F7880F911D4E
:102FA0009695879597F90895E1E0660F771F881F3A
:102FB000BB1F621773078407BA0720F0621B730BED
:102FC000840BBA0BEE1F88F7E095089504D068943F
:102FD000B111D9C00895BCD088F09F5790F0B92F97
:102FE0009927B751A0F0D1F0660F771F881F991F5E
:102FF0001AF0BA95C9F712C0B13081F0C3D0B1E070
:103000000895C0C0672F782F8827B85F39F0B93F7F
:10301000CCF3869577956795B395D9F73EF490955F
:103020008095709561957F4F8F4F9F4F0895E894DD
:1030300009C097FB3EF490958095709561957F4F00
:103040008F4F9F4F9923A9F0F92F96E9BB279395AE
:10305000F695879577956795B795F111F8CFFAF4BE
:10306000BB0F11F460FF1BC06F5F7F4F8F4F9F4FEF
:1030700016C0882311F096E911C0772321F09EE84D
:10308000872F762F05C0662371F096E8862F70E0B3
:1030900060E02AF09A95660F771F881FDAF7880F8D
:1030A0009695879597F90895990F0008550FAA0BE3
:1030B000E0E8FEEF16161706E807F907C0F012164B
:1030C0001306E407F50798F0621B730B840B950B4E
:1030D00039F40A2661F0232B242B252B21F40895A3
:1030E0000A2609F4A140A6958FEF811D811D089540
:1030F00097F99F6780E870E060E008959FEF80ECAB
:10310000089500240A94161617061806090608954D
:1031100000240A9412161306140605060895092EB3
:103120000394000C11F4882352F0BB0F40F4BF2B22
:1031300011F460FF04C06F5F7F4F8F4F9F4F089562
:1031400057FD9058440F551F59F05F3F71F0479558
:10315000880F97FB991F61F09F3F79F0879508953D
:10316000121613061406551FF2CF4695F1DF08C05C
:10317000161617061806991FF1CF86957105610579
:1031800008940895E894BB2766277727CB0197F921
:1031900008958ADF08F48FEF08950BD0C0CFB1DF18
:1031A00028F0B6DF18F0952309F0A2CFA7CF11249D
:1031B000EACFC6DFA0F3959FD1F3950F50E0551FDE
:1031C000629FF001729FBB27F00DB11D639FAA277C
:1031D000F00DB11DAA1F649F6627B00DA11D661FCB
:1031E000829F2227B00DA11D621F739FB00DA11DEC
:1031F000621F839FA00D611D221F749F3327A00DA6
:10320000611D231F849F600D211D822F762F6A2F41
:1032100011249F5750408AF0E1F088234AF0EE0FC6
:10322000FF1FBB1F661F771F881F91505040A9F7D3
:103230009E3F510570F05CCFA6CF5F3FECF3983E08
:10324000DCF3869577956795B795F795E7959F5F3A
:10325000C1F7FE2B880F911D9695879597F90895D4
:10326000FA01EE0FFF1F30962105310599F1611526
:10327000710561F48038BFE39B0749F16894903889
:10328000810561F08038BFEF9B0741F0992342F53B
:10329000FF3FE1053105210511F1E8940894E79518
:1032A000D901AA2329F4AB2FBE2FF85FD0F310C0A9
:1032B000FF5F70F4A695E0F7F73950F019F0FF3A88
:1032C00038F49F779F930CD00F9007FC9058089587
:1032D0003EF014CF60E070E080E89FE308954FE790
:1032E0009F775F934F933F932F939ED02F913F9162
:1032F0004F915F9152DF05C019F40EF0F9CE42CF25
:10330000FDCE26DFC8F39638C0F707F80F92E89491
:103310002BE33AEA48EB5FE74EDF0F920F920F92F2
:103320004DB75EB70F92C0D0E8E6F0E016D04F91EF
:103330005F91EF91FF91E595EE1FFF1F49F0FE575A
:10334000E0684427EE0F441FFA95E1F74195550BCD
:1033500032D00F9007FE26C00895DF93CF931F93BE
:103360000F93FF92EF92DF927B018C01689405C06E
:10337000DA2EEF011EDFFE01E894A591259135912B
:1033800045915591AEF3EF0162DDFE019701A80171
:10339000DA9479F7DF90EF90FF900F911F91CF9122
:1033A000DF9108959B01AC0160E070E080E89FE34D
:1033B000A5CD9ECEACC0CCDEE8F39923D9F3940F13
:1033C000511DBBF39150504094F059F0882332F0D6
:1033D000660F771F881F91505040C1F79E3F5105DF
:1033E00044F7880F911D9695879597F908955F3F4B
:1033F000ACF0983E9CF0BB27869577956795B7957E
:1034000008F4B1609395C1F7BB0F58F711F460FF52
:10341000E8CF6F5F7F4F8F4F9F4FE3CFB4CE0EF05B
:1034200076C06CCE689464CE93DEC8F39923D1F352
:10343000C6F3DF93CF931F930F93FF92C92FDD271E
:1034400088232AF02197660F771F881FDAF720E07C
:1034500030E040E85FEB9FE3883920F0803E30F0B9
:1034600021968F77E3DCE0E9F0E003C0DFDCEDEBF1
:10347000F0E073DF8B01BE01EC01FB2E6F57710989
:103480007595771F880B990BD4DD28E132E741E36E
:103490005FE38FDEAF2D9801AE01FF900F911F917A
:1034A000CF91DF91D4DC3BCEFA01DC01AA0FBB1F28
:1034B0009B01AC01BF5728F42227332744275078BB
:1034C0001FC0B75188F4AB2F002446953795279538
:1034D000011CA395D2F3002069F0220F331F441F73
:1034E000B395DAF30DD0A1CC61307105A0E88A075D
:1034F000B94630F49B01AC0166277727882790787E
:10350000309621F0208331834283538308959F3F77
:1035100031F0915020F4879577956795B795880F8E
:10352000911D9695879597F90895DB018F939F9349
:103530000E94FA1ABF91AF91A29F800D911DA39F87
:10354000900DB29F900D1124089597FB072E16F44D
:10355000009407D077FD09D00E940D1B07FC05D011
:103560003EF4909581959F4F0895709561957F4F9A
:103570000895A1E21A2EAA1BBB1BFD010DC0AA1FB4
:10358000BB1FEE1FFF1FA217B307E407F50720F0CC
:10359000A21BB30BE40BF50B661F771F881F991F47
:1035A0001A9469F760957095809590959B01AC0190
:1035B000BD01CF010895052E97FB1EF400940E94D3
:1035C000F21A57FD07D00E94B91A07FC03D04EF437
:1035D0000C94F21A50954095309521953F4F4F4FDE
:1035E0005F4F089590958095709561957F4F8F4FAF
:1035F0009F4F08950E94271BA59F900DB49F900D8B
:10360000A49F800D911D11240895B7FF0C94FA1A00
:103610000E94FA1A821B930B0895AA1BBB1B51E14F
:1036200007C0AA1FBB1FA617B70710F0A61BB70B32
:10363000881F991F5A95A9F780959095BC01CD01D7
:103640000895EE0FFF1F0590F491E02D0994A29FBD
:10365000B001B39FC001A39F700D811D1124911D66
:10366000B29F700D811D1124911D0895EF920F934B
:103670001F93CF93DF93E80147FF02C034E101C0FD
:1036800034E0E42FFF27E7FDF095F7FF03C0F19545
:10369000E195F109E32E022F2E2FAE010E94881D25
:1036A000CE01DF91CF911F910F91EF900895CF93AD
:1036B000DF938230910510F482E090E0E091E7051D
:1036C000F091E80520E030E0A0E0B0E0309739F17B
:1036D0004081518148175907B8F04817590771F4CC
:1036E00082819381109729F013969C938E93129761
:1036F0002CC09093E8058093E70527C0211531057C
:1037000031F04217530718F0A901DB0101C0EF01A6
:103710009A01BD01DF010280F381E02DD7CF211591
:103720003105F9F0281B390B2430310580F48A81EA
:103730009B816115710521F0FB019383828304C095
:103740009093E8058093E705FE01329644C0FE01A0
:10375000E20FF31F8193919322503109398328831B
:103760003AC02091E5053091E605232B41F42091E4
:103770000201309103013093E6052093E505209185
:103780000001309101012115310541F42DB73EB7FB
:103790004091040150910501241B350BE091E50592
:1037A000F091E605E217F307A0F42E1B3F0B281754
:1037B000390778F0AC014E5F5F4F2417350748F0AA
:1037C0004E0F5F1F5093E6054093E505819391935B
:1037D00002C0E0E0F0E0CF01DF91CF910895CF93F8
:1037E000DF93009709F487C0FC013297138212829D
:1037F000C091E705D091E805209781F420813181BF
:10380000280F391F8091E5059091E60582179307EF
:1038100079F5F093E605E093E5056DC0DE0120E063
:1038200030E0AE17BF0750F412964D915C9113979C
:103830009D014115510509F1DA01F3CFB383A2834C
:1038400040815181840F951F8A179B0771F48D91D8
:103850009C911197840F951F0296918380831296F5
:103860008D919C911397938382832115310529F4BF
:10387000F093E805E093E7053EC0D9011396FC9369
:10388000EE9312974D915D91A40FB51FEA17FB07B8
:1038900079F480819181840F951F0296D901119648
:1038A0009C938E938281938113969C938E9312970F
:1038B000E0E0F0E08A819B81009719F0FE01EC01C5
:1038C000F9CFCE01029628813981820F931F209172
:1038D000E5053091E6052817390769F4309729F492
:1038E0001092E8051092E70502C013821282D0936D
:1038F000E605C093E505DF91CF910895A0E0B0E023
:10390000E4E8FCE10C94F21FEC01CB01209719F4E0
:103910000E94571BB8C0FE01E60FF71F9E01225000
:103920003109E217F30708F4ACC0D9010D911C91DD
:10393000119706171707B8F00530110508F49FC056
:10394000A801445051094617570708F498C002507F
:103950001109061B170B019311936D937C93CF01F3
:103960000E94EF1B8CC05B01A01AB10A4E01800EB1
:10397000911EA091E705B091E805612C712C60E0E3
:1039800070E0109709F449C0A815B905C9F5ED9084
:10399000FC901197670142E0C40ED11CCA14DB04ED
:1039A00078F147018A189B08640142E0C40ED11CDB
:1039B0001296BC9012971396AC91B5E0CB16D10439
:1039C00040F0B282A38391828082D9018D939C932F
:1039D00009C00E5F1F4F0E0D1F1DF90111830083DB
:1039E000EB2DFA2F6115710531F0DB011396FC9375
:1039F000EE93129744C0F093E805E093E7053FC0CB
:103A00006D917C9111976616770608F43B01BD0114
:103A100012960D90BC91A02DB4CF6091E5057091E8
:103A2000E60568157905E9F468167906D0F4409141
:103A30000001509101014115510541F44DB75EB7A8
:103A40006091040170910501461B570BE417F507BF
:103A5000C0F4F093E605E093E505F90191838083D6
:103A60000EC00E94571B7C01009759F0A801BE01AF
:103A70000E94481DCE010E94EF1BC70104C0CE0169
:103A800002C080E090E0CDB7DEB7EEE00C940E20EF
:103A9000FB01DC0102C001900D9241505040D8F76B
:103AA0000895FB01DC0101900D920020E1F70895DB
:103AB0004532510520F4423010F00C94631DFB0197
:103AC0001082CB010895BB274A3031F4992322F4A8
:103AD000BDE2909581959F4F0C946F1DBB27FB0114
:103AE0005527AA27880F991FAA1FA41710F0A41BF7
:103AF00083955051B9F7A05DAA3308F0A95DA19351
:103B0000009779F7B111B1931192CB010C94DE1F9C
:103B10006F927F929F92AF92BF92CF92DF92EF927D
:103B2000FF920F931F93CF93DF93CDB7DEB7299703
:103B30000FB6F894DEBF0FBECDBF6A01B22E102FB4
:103B40000C3320F4FF24F394F00E02C04CE3F42E67
:103B50000F2D27E0AE014F5F5F4F0E94061F798156
:103B6000272F2970213031F0E1FC06C0E0FC06C0AF
:103B700060E005C06DE203C06BE201C060E2AE2D03
:103B8000A07173FF36C0662311F084E001C083E0AA
:103B90008B1510F4B81A01C0B12CA1110BC0F6019D
:103BA0008B2D90E2882319F091938150FBCFCB0CA1
:103BB000D11CB12C662331F0F601608396012F5F92
:103BC0003F4F6901C6010396E2FE05C02EE4F601EF
:103BD000208331E404C02EE6F601208331E63183F0
:103BE0002283FC012B2D30E22223F1F1319321506D
:103BF000FBCF72FF40C0662311F084E001C083E078
:103C00008B1510F4B81A01C0B12CA1110BC0F6012C
:103C10008B2D90E2882319F091938150FBCFCB0C30
:103C2000D11CB12C662331F0F601608396012F5F21
:103C30003F4F6901C6010396E2FE07C029E4F60181
:103C400020832EE4218326E406C029E6F6012083A2
:103C50002EE6218326E62283FC012B2D30E222234F
:103C600019F031932150FBCFFC01EB0DF11D1082B7
:103C70008EEF9FEFB7C0B1E0611101C0B0E04B2FF4
:103C800050E01816190624F49C012F5F3F4F02C024
:103C900021E030E0240F351F112329F0412F50E09F
:103CA0004F5F5F4F02C040E050E0420F531F2B2D8B
:103CB00030E04217530714F4B41A01C0B12C2E2D72
:103CC000287159F4F6012B2D30E2222319F031939B
:103CD0002150FBCFCB0CD11CB12CBB2331F0F60112
:103CE000608396012F5F3F4F6901A1110BC0F60160
:103CF0002B2D30E3222319F031932150FBCFCB0C35
:103D0000D11CB12CF80E0A81372F3071A32E74FF0D
:103D100003C0013309F4FA941F142CF42F2D293019
:103D200018F028E001C021E0682F392F97FF02C06A
:103D300060E030E0462F532F612C712C3EE2932E31
:103D4000BC01621B71099B01DC01A41BB50BE1E006
:103D5000F0E0EC0FFD1FAE0FBF1FE12EF12CF19430
:103D6000E194F1084F3FFFEF5F0731F4F6019082D5
:103D7000B6016F5F7F4F6B01841795074CF02417D6
:103D8000350734F4BD01660D771DFB01118101C0BB
:103D900010E341505109FFEF6F1A7F0AB6016F5FC0
:103DA0007F4F4E155F0524F0F60110836B01DACFCB
:103DB0004817590739F4063320F4053319F4A110D4
:103DC00001C011E3F6011083FB018B2D90E28823E3
:103DD00019F091938150FBCFFB01EB0DF11D108287
:103DE00080E090E029960FB6F894DEBF0FBECDBFFD
:103DF000DF91CF911F910F91FF90EF90DF90CF90C7
:103E0000BF90AF909F907F906F900895283008F0FA
:103E100027E03327DA01990F311D87FD9160009665
:103E20006105710539F432602E5F3D9330E32A95C8
:103E3000E1F708959F3F30F080387105610509F082
:103E40003C5F3C5F3D93913008F08068911DDF93AB
:103E5000CF931F930F93FF92EF92192F987F969510
:103E6000E92F96959695E90FFF27E256FE4F992781
:103E70003327EE24FF24A701E70105900894079457
:103E800028F4360FE71EF81E491F511D660F771FD5
:103E9000881F991F0694A1F70590079428F4E70E50
:103EA000F81E491F561FC11D770F881F991F661FD7
:103EB0000694A1F70590079428F4F80E491F561FA1
:103EC000C71FD11D880F991F661F771F0694A1F782
:103ED0000590079420F4490F561FC71FD81F990F4C
:103EE000661F771F881F0694A9F784911095177095
:103EF00041F0D695C79557954795F794E7941A954D
:103F0000C1F7E4E4F1E0689415901591359165915D
:103F1000959105907FE27395E118F10A430B560BDA
:103F2000C90BD009C0F7E10CF11E431F561FC91F72
:103F3000D01D7EF4703311F48A95E6CFE8940150D9
:103F400030F0080F0AF40027021708F4202F2395F9
:103F5000022F7A3328F079E37D932A95E9F710C090
:103F60007D932A9589F606949795679537951795C9
:103F70001794E118F10A430B560BC90BD00998F0BE
:103F800023957E9173957A3308F070E37C93201328
:103F9000B8F77E9170617D9330F0839571E37D93E6
:103FA00070E32A95E1F71124EF90FF900F911F9194
:103FB000CF91DF91992787FD90950895DC01FC0151
:103FC000672F71917723E1F7329704C07C916D934D
:103FD00070836291AE17BF07C8F308952F923F9286
:103FE0004F925F926F927F928F929F92AF92BF9209
:103FF000CF92DF92EF92FF920F931F93CF93DF93B5
:10400000CDB7DEB7CA1BDB0B0FB6F894DEBF0FBE11
:10401000CDBF09942A88398848885F846E847D845E
:104020008C849B84AA84B984C884DF80EE80FD8060
:104030000C811B81AA81B981CE0FD11D0FB6F894D6
:10404000DEBF0FBECDBFED01089512E0C4E4D2E0A3
:1040500004C0FE010E94231B2296C634D107C9F773
:04406000F894FFCF02
:104064000000E90580000000803FE80332002800DA
:104074000100CD8B0100000000BF0000003F0C00D8
:104084000B00C864433228211D160B0201000000F6
:10409400006504FB14D1044404B704E904000000DF
:1040A400002007F306C806D006E306F206436F7540
:1040B4006C64206E6F742066696E64206120766182
:1040C4006C696420424D503038352073656E736FCF
:1040D400722C20636865636B20776972696E67214F
:1040E4000024002A002C30002C302C310056415280
:1040F400494F2C00000000007F13FB1401131A1316
:104104000C135D130D0A006E616E00696E66006F1C
:064114007666002E00009B
:00000001FF
